:100000000C9469000C9406030C942B030C9486004A
:100010000C9486000C9486000C9486000C94860048
:100020000C9486000C9486000C9486000C94860038
:100030000C9486000C9486000C9486000C94860028
:100040000C9486000C9486000C9486000C94860018
:100050000C9486000C9486000C9486000C94860008
:100060000C9486000C9486000C9486000C948600F8
:100070000C9486000C9486000C9486000C948600E8
:100080000C9486000C9486000C9486000C948600D8
:100090000C9486000C9486000C9486000C948600C8
:1000A0000C9486000C9486000C9486000C948600B8
:1000B0000C94860005A84CCDB2D44EB93836A902AE
:1000C0000C50B9918688083CA6AAAA2ABE00000056
:1000D000803F11241FBECFEFD8E0DEBFCDBF11E0BF
:1000E000A0E0B1E0E4E7F6E102C005900D92A4348F
:1000F000B107D9F723E0A4E4B1E001C01D92A1311A
:10010000B207E1F70E944A050C94380B0C940000EA
:1001100090917C00907F90937C0090917C00892B43
:1001200080937C0080917A00806480937A00809133
:100130007A0086FDFCCF8091780090917900A0E054
:10014000B0E022E0880F991FAA1FBB1F2A95D1F7A4
:100150000895ECE7F0E080818064808380818F7770
:1001600080838081807F8083EAE7F0E080818768F8
:10017000808308959093200280931F02109225029D
:1001800010920C02109224021092230210922D025F
:1001900010922C0210922202109221021092270239
:1001A0001092260210922B0210922A02109229021B
:1001B00010922802109207031092060310920E026A
:1001C00010920D020895E0911F02F091200201901B
:1001D000F081E02D80E895E20995E0911F02F09111
:1001E00020020280F381E02D0995E0911F02F09139
:1001F00020020480F581E02D0995E0911F02F09125
:1002000020020680F781E02D0995E0911F02F09110
:100210002002208D318D0084F185E02D44E06FE0D7
:1002200072E08EE292E0099581E0809325020895C4
:100230000F931F93CF93DF93C4E4D1E00EE312E05A
:10024000E0911F02F09120020688F789E02D80E0FE
:10025000099589939993E0911F02F09120020688F5
:10026000F789E02D81E00995F801819391938F0141
:10027000F2E0CC30DF0721F7E0911F02F09120027D
:100280000284F385E02D0995C82FE0911F02F091BB
:100290002002028CF38DE02D0995E0911F02F09170
:1002A00020020488F589E02D0995E0911F02F09164
:1002B0002002C43030F40284F385E02D0995C82F64
:1002C000F4CF0288F389E02D099582E0809325021E
:1002D000DF91CF911F910F910895E0911F02F0914E
:1002E0002002048CF58DE02D64E684E491E009950C
:1002F00090932D0280932C02E0911F02F091200236
:10030000048CF58DE02D64E68EE392E009959093E0
:10031000220280932102E0911F02F0912002068CBC
:10032000F78DE02D80912C0290912D0209959093EC
:10033000270280932602E0911F02F0912002068C92
:10034000F78DE02D809121029091220209959093E2
:100350002B0280932A02E0911F02F091200200A05C
:10036000F1A1E02D44E06FE072E08EE292E00995A9
:100370009093290280932802E0911F02F0912002BD
:1003800002A0F3A1E02D0995909307038093060343
:1003900060912A0270912B02E0911F02F0912002DD
:1003A00004A0F5A1E02DAC018091260290912702D6
:1003B000099590930E0280930D0210920C021092F8
:1003C0002402E0911F02F09120020484F585E02DC3
:1003D00080E00995E0911F02F0912002208D318D7F
:1003E0000084F185E02D44E66FE072E08EE292E059
:1003F000099583E0809325020895CF93DF93CDB7CD
:10040000DEB760970FB6F894DEBF0FBECDBFE091A8
:100410001F02F09120020684F785E02D40E5BE0121
:100420006F5F7F4F80910D0290910E020995E091D0
:100430001F02F09120020088F189E02DCE01019683
:100440000995E0911F02F09120020684F785E02DC6
:1004500046E4BE016F5F7F4F8091060390910703D2
:100460000995E0911F02F09120020088F189E02DAA
:10047000CE0101960995E0911F02F09120020684B9
:10048000F785E02D46E5BE016F5F7F4F8091260224
:10049000909127020995E0911F02F09120020088B7
:1004A000F189E02DCE0101960995E0911F02F091AE
:1004B00020020684F785E02D49E4BE016F5F7F4F7F
:1004C00080912A0290912B020995E0911F02F091F0
:1004D00020020088F189E02DCE010196099581E086
:1004E0008093250260960FB6F894DEBF0FBECDBF95
:1004F000DF91CF91089580912502813059F038F035
:10050000823059F0833061F40E94FD01F4CF0E94E3
:10051000E300F1CF0E941801EECF0E946D01EBCFF6
:1005200081E090E0089581E187B91AB88AB18360CB
:100530008AB98BB18C608BB9089578940895F8943A
:100540000895809309038093080308959091090307
:1005500080910803891718F4809108030895809109
:100560000903089590930D0380930C037093100377
:1005700060930F0340930E0330930B0320930A0301
:10058000E9E6F0E080818F6080838DB383608DBB6E
:1005900010920803109209030895CF93DF938823E4
:1005A00019F0813091F02FC09091080380910E03D3
:1005B000981749F1C0910F03D0911003809108035F
:1005C00091E0980F9093080310C0909109038091D7
:1005D0000E039817C1F0C0910C03D0910D038091C8
:1005E000090391E0980F9093090394E0899FC00D4F
:1005F000D11D1124E0910A03F0910B030995688342
:1006000079838A839B83DF91CF9108951F920F9204
:100610000FB60F9211242F933F934F935F936F93D5
:100620007F938F939F93AF93BF93EF93FF9380E05C
:100630000E94CD02FF91EF91BF91AF919F918F9159
:100640007F916F915F914F913F912F910F900FBECE
:100650000F901F9018951F920F920FB60F921124B2
:100660002F933F934F935F936F937F938F939F93BA
:10067000AF93BF93EF93FF9381E00E94CD02FF9170
:10068000EF91BF91AF919F918F917F916F915F910A
:100690004F913F912F910F900FBE0F901F90189583
:1006A000FC0120E080E090E0261741F0419151915B
:1006B0008417950708F4CA012F5FF6CF0895BC018F
:1006C00080E090E00E941B062EEE34E045EB5FE3F5
:1006D0000E9473050E94EC05CB010895CF92DF9232
:1006E000EF92FF920F931F93FB01008111812281F2
:1006F0003381FC0180819181A281B38168017901FC
:10070000C81AD90AEA0AFB0AC601D7FE04C088271C
:1007100099278C199D09FB0164817581601B710B00
:100720000E941808072E000C880B990B0E941D06CA
:1007300020E030E044EB53E40E94E8060E94E50527
:100740009B0177FF04C022273327261B370BC901E3
:100750001F910F91FF90EF90DF90CF900895BC0113
:1007600080E090E00E941B062EE23AEF4EE85CE348
:100770000E94E8060E94EC0580E090E00E941B06C3
:100780000E946E0520E030E04AE754E40E94E8064B
:100790000E94EC05CB010895CF93DF93EB01FA01A2
:1007A00028EE33E0B9010E9404086C9FC0016D9FE0
:1007B000900D7C9F900D1124B9010E9404086E9F3A
:1007C000C0016F9F900D7E9F900D1124B9010E9472
:1007D000040880E090E00E941B0620E030E04AE739
:1007E00054E40E94E8060E94EC05CB01DF91CF9112
:1007F0000895E1E8F0E0808184608083089510929C
:1008000085001092840008956091840070918500A5
:1008100080E090E00E941B0620E030E040E851E4D8
:100820000E94E8060E94EC050895FF920F931F9323
:10083000CF93DF938C01D62FF72EC42F493409F4C0
:100840004EC020F4463409F45FC0E3C0403509F4DB
:100850009EC0463509F0DDC0BC0180E090E00E94FA
:100860001B0620E030E04AE754E40E9473059B0138
:10087000482FE92FC80168EE73E00E940408892B15
:10088000B9F4EF934F933F932F931F92CF9386E248
:1008900091E09F938F93FF92DF930E944E088DB754
:1008A0009EB70A960FB6F8949EBF0FBE8DBFB1C01B
:1008B000EF934F933F932F931F92CF938FE291E04B
:1008C0009F938F93FF92DF930E944E088DB79EB740
:1008D0000A960FB6F8949EBF0FBE8DBF9AC01F93A5
:1008E0008F931F924F9388E391E09F938F937F9311
:1008F0006F930E944E088DB79EB708960FB6F89476
:100900009EBF0FBE8DBF85C0BC0180E090E00E94FD
:100910001B0620E030E04AE754E40E9473059B0187
:10092000482FE92FC80168EE73E00E940408892B64
:10093000B9F4EF934F933F932F931F92CF9386E297
:1009400091E09F938F93FF92DF930E944E088DB7A3
:100950009EB70A960FB6F8949EBF0FBE8DBF59C0C2
:10096000EF934F933F932F931F92CF938FE291E09A
:100970009F938F93FF92DF930E944E088DB79EB78F
:100980000A960FB6F8949EBF0FBE8DBF42C0BC0141
:1009900080E090E00E941B0620E030E04AE754E44B
:1009A0000E9473059B01482FE92FC80168EE73E090
:1009B0000E940408892BB9F4EF934F933F932F9330
:1009C0001F92CF9386E291E09F938F93FF92DF93E4
:1009D0000E944E088DB79EB70A960FB6F8949EBF38
:1009E0000FBE8DBF16C0EF934F933F932F931F926F
:1009F000CF938FE291E09F938F93FF92DF930E94BA
:100A00004E088DB79EB70A960FB6F8949EBF0FBEDC
:100A10008DBFDF91CF911F910F91FF900895A0E0BE
:100A2000B0E09C01AD0184E0220F331F441F551F2D
:100A30008A95D1F760E074E284EF90E00E942C0880
:100A400021503109E1ECF0E0808188618083E2ECA3
:100A5000F0E080818660808380818F7E80838081CA
:100A60008F7D80833093C5002093C40008959091BA
:100A7000C00095FFFCCF8093C6000895CF93DF930D
:100A8000EC018991882319F00E943705FACFDF9194
:100A9000CF910895CF93DF93CDB7DEB7A6970FB66A
:100AA000F894DEBF0FBECDBF86E2E0E0F1E0DE01EC
:100AB000119601900D928A95E1F7CE0101960E9460
:100AC000BA000E947B0280E090E0A6960FB6F894F0
:100AD000DEBF0FBECDBFDF91CF9108950E9471069A
:100AE000E3950C94AB060E9487050C949A060E942D
:100AF000680658F00E94610640F029F45F3F29F033
:100B00000C94580651110C94E2060C945E060E9457
:100B1000BF0668F39923B1F3552391F3951B550B49
:100B2000BB27AA2762177307840738F09F5F5F4FC0
:100B3000220F331F441FAA1FA9F335D00E2E3AF0FF
:100B4000E0E832D091505040E695001CCAF72BD017
:100B5000FE2F29D0660F771F881FBB1F2617370768
:100B60004807AB07B0E809F0BB0B802DBF01FF279A
:100B700093585F4F3AF09E3F510578F00C94580619
:100B80000C94E2065F3FE4F3983ED4F386957795A4
:100B90006795B795F7959F5FC9F7880F911D969553
:100BA000879597F90895E1E0660F771F881FBB1FAF
:100BB000621773078407BA0720F0621B730B840B5C
:100BC000BA0BEE1F88F7E09508950E94EC05689433
:100BD000B1110C94E20608950E94C70688F09F5751
:100BE00098F0B92F9927B751B0F0E1F0660F771F51
:100BF000881F991F1AF0BA95C9F714C0B13091F047
:100C00000E94E106B1E008950C94E106672F782F69
:100C10008827B85F39F0B93FCCF38695779567950B
:100C2000B395D9F73EF490958095709561957F4F77
:100C30008F4F9F4F0895E89409C097FB3EF490951D
:100C40008095709561957F4F8F4F9F4F9923A9F0A5
:100C5000F92F96E9BB279395F69587957795679534
:100C6000B795F111F8CFFAF4BB0F11F460FF1BC078
:100C70006F5F7F4F8F4F9F4F16C0882311F096E90B
:100C800011C0772321F09EE8872F762F05C06623B9
:100C900071F096E8862F70E060E02AF09A95660F72
:100CA000771F881FDAF7880F9695879597F908952B
:100CB00097F99F6780E870E060E008959FEF80EC0F
:100CC000089500240A9416161706180609060895B2
:100CD00000240A94121613061406050608950C94AF
:100CE0005E060E94C706D8F3E894E0E0BB279F5752
:100CF000F0F02AED3FE049EC06C0EE0FBB0F661F97
:100D0000771F881F28F0B23A62077307840728F01C
:100D1000B25A620B730B840BE3959A9572F7803885
:100D200030F49A95BB0F661F771F881FD2F7904843
:100D30000C94BD07092E0394000C11F4882352F083
:100D4000BB0F40F4BF2B11F460FF04C06F5F7F4FF7
:100D50008F4F9F4F0895EF93E0FF07C0A2EA2AED5F
:100D60003FE049EC5FEB0E9466070E949A060F90F5
:100D7000039401FC9058E4EBF0E00C94F00757FD6D
:100D80009058440F551F59F05F3F71F04795880FF9
:100D900097FB991F61F09F3F79F087950895121690
:100DA00013061406551FF2CF4695F1DF08C016163C
:100DB00017061806991FF1CF8695710561050894ED
:100DC0000895E894BB2766277727CB0197F9089504
:100DD0000E94FB060C949A060E94610638F00E945D
:100DE000680620F0952311F00C9458060C945E06CA
:100DF00011240C94E2060E94BF0670F3959FC1F384
:100E0000950F50E0551F629FF001729FBB27F00DB8
:100E1000B11D639FAA27F00DB11DAA1F649F66270D
:100E2000B00DA11D661F829F2227B00DA11D621F5C
:100E3000739FB00DA11D621F839FA00D611D221F16
:100E4000749F3327A00D611D231F849F600D211DFA
:100E5000822F762F6A2F11249F5750409AF0F1F07D
:100E600088234AF0EE0FFF1FBB1F661F771F881FE6
:100E700091505040A9F79E3F510580F00C945806C0
:100E80000C94E2065F3FE4F3983ED4F386957795A1
:100E90006795B795F795E7959F5FC1F7FE2B880F8C
:100EA000911D9695879597F908950E94610638F0EF
:100EB0000E94680620F039F49F3F19F426F40C9440
:100EC0005E060EF4E095E7FB0C945806E92F0E94AD
:100ED000BF0658F3BA17620773078407950720F017
:100EE00079F4A6F50C94E1060EF4E0950B2EBA2FDA
:100EF000A02D0B01B90190010C01CA01A001112420
:100F0000FF27591B99F0593F50F4503E68F11A16CB
:100F1000F040A22F232F342F4427585FF3CF46955C
:100F200037952795A795F0405395C9F77EF41F167E
:100F3000BA0B620B730B840BBAF09150A1F0FF0F48
:100F4000BB1F661F771F881FC2F70EC0BA0F621F34
:100F5000731F841F48F4879577956795B795F79524
:100F60009E3F08F0B0CF9395880F08F09927EE0FB9
:100F70009795879508959F3F31F0915020F487957C
:100F800077956795B795880F911D9695879597F9F1
:100F90000895DF93CF931F930F93FF92EF92DF9209
:100FA0007B018C01689406C0DA2EEF010E94FB06DB
:100FB000FE01E894A5912591359145915591A6F3AF
:100FC000EF010E946607FE019701A801DA9469F714
:100FD000DF90EF90FF900F911F91CF91DF910895D7
:100FE0009F938F937F936F93FF93EF939B01AC013C
:100FF0000E94E806EF91FF910E94C9072F913F914F
:101000004F915F910C94E806AA1BBB1B51E107C0EE
:10101000AA1FBB1FA617B70710F0A61BB70B881F88
:10102000991F5A95A9F780959095BC01CD01089517
:1010300097FB072E16F4009407D077FD09D00E9485
:10104000040807FC05D03EF4909581959F4F0895C4
:10105000709561957F4F0895A1E21A2EAA1BBB1BC4
:10106000FD010DC0AA1FBB1FEE1FFF1FA217B30774
:10107000E407F50720F0A21BB30BE40BF50B661F8A
:10108000771F881F991F1A9469F76095709580954E
:1010900090959B01AC01BD01CF010895AEE0B0E099
:1010A000E4E5F8E00C940F0B0D891E8986E08C8333
:1010B0001A8309838FEF9FE79E838D83AE01475E7E
:1010C0005F4F6F89788DCE0101960E947008EF8185
:1010D000F885E00FF11F10822E96E4E00C942B0BA4
:1010E000ABE0B0E0E6E7F8E00C94010B6C017B01AB
:1010F0008A01FC0117821682838181FFCCC1CE0157
:1011000001963C01F6019381F70193FD859193FFD0
:1011100081917F01882309F4BAC1853239F493FDA6
:10112000859193FF81917F01853229F4B60190E08A
:101130000E94670AE7CF912C212C312CFFE1F31597
:10114000D8F08B3279F038F4803279F08332A1F420
:10115000232D20611DC08D3261F0803369F4232D71
:10116000216016C0832D8260382EE32DE4603E2E70
:101170002AC0F32DF8601DC037FC2DC020ED280FCC
:101180002A3040F08E32B9F436FC81C1232D206420
:10119000322E19C036FE06C08AE0989E200D11241A
:1011A000922E11C0EAE02E9E200D1124222EF32D46
:1011B000F0623F2E08C08C3621F4832D8068382ED3
:1011C00002C0883641F4F70193FD859193FF819128
:1011D0007F018111B3CF982F9F7D9554933028F4D0
:1011E0000C5F1F4F9FE399830DC0833631F0833727
:1011F00071F0833509F059C021C0F80180818983DD
:101200000E5F1F4F88248394912C530113C0280133
:10121000F2E04F0E511CF801A080B18036FE03C0F1
:10122000692D70E002C06FEF7FEFC5010E945C0A7C
:101230004C018201F32DFF773F2E16C0280122E0DA
:10124000420E511CF801A080B18036FE03C0692D0A
:1012500070E002C06FEF7FEFC5010E94510A4C01A0
:10126000F32DF0683F2E820133FC1BC0822D90E0ED
:1012700088169906B0F4B60180E290E00E94670AF1
:101280002A94F4CFF50137FC859137FE81915F01F7
:10129000B60190E00E94670A21102A9421E0821A88
:1012A00091088114910471F7E8C0843611F08936F1
:1012B00041F5F80137FE07C0608171818281938119
:1012C0000C5F1F4F08C060817181072E000C880BD6
:1012D000990B0E5F1F4FF32DFF763F2E97FF09C02E
:1012E00090958095709561957F4F8F4F9F4FF068D7
:1012F0003F2E2AE030E0A3010E94A30A882E861820
:1013000045C0853731F4232D2F7EB22E2AE030E000
:1013100025C0932D997FB92E8F36C1F018F48835EA
:1013200079F0B5C0803719F0883721F0B0C0E92FC7
:10133000E061BE2EB4FE0DC0FB2DF460BF2E09C0CF
:1013400034FE0AC0292F2660B22E06C028E030E005
:1013500005C020E130E002C020E132E0F801B7FE34
:1013600007C060817181828193810C5F1F4F06C02D
:101370006081718180E090E00E5F1F4FA3010E94A9
:10138000A30A882E8618FB2DFF773F2E36FE0DC050
:10139000232D2E7FA22E891458F434FE0BC032FC6C
:1013A00009C0832D8E7EA82E05C0B82CA32C03C0A7
:1013B000B82C01C0B92CA4FE0FC0FE01E80DF11D30
:1013C0008081803321F49A2D997EA92E09C0A2FE36
:1013D00006C0B394B39404C08A2D867809F0B39400
:1013E000A3FC11C0A0FE06C0B21488F4280C922CF5
:1013F0009B180EC0B21460F4B60180E290E00E9427
:10140000670AB394F7CFB21418F42B1802C0982CC3
:10141000212CA4FE10C0B60180E390E00E94670A70
:10142000A2FE17C0A1FC03C088E790E002C088E5D7
:1014300090E0B6010CC08A2D867859F0A1FE02C05A
:101440008BE201C080E2A7FC8DE2B60190E00E9431
:10145000670A891438F4B60180E390E00E94670AB5
:101460009A94F7CF8A94F301E80DF11D8081B601BB
:1014700090E00E94670A8110F5CF222009F442CE45
:10148000B60180E290E00E94670A2A94F6CFF60146
:101490008681978102C08FEF9FEF2B96E2E10C943B
:1014A0001D0BFC010590615070400110D8F780952C
:1014B00090958E0F9F1F0895FC0161507040019020
:1014C0000110D8F7809590958E0F9F1F08950F9368
:1014D0001F93CF93DF93FB01238121FD03C08FEF87
:1014E0009FEF2CC022FF16C0468157812481358191
:1014F0004217530744F4A081B1819D012F5F3F4FF4
:10150000318320838C93268137812F5F3F4F378330
:10151000268314C08B01EC01FB010084F185E02DD2
:101520000995892BE1F6D80116968D919C91179714
:10153000019617969C938E931697CE01DF91CF91CB
:101540001F910F910895FA01AA27283051F12031F7
:1015500081F1E8946F936E7F6E5F7F4F8F4F9F4F47
:10156000AF4FB1E03ED0B4E03CD0670F781F891F89
:101570009A1FA11D680F791F8A1F911DA11D6A0F57
:10158000711D811D911DA11D20D009F468943F910A
:101590002AE0269F11243019305D3193DEF6CF0109
:1015A0000895462F4770405D4193B3E00FD0C9F7CF
:1015B000F6CF462F4F70405D4A3318F0495D31FD3C
:1015C0004052419302D0A9F7EACFB4E0A69597958F
:1015D000879577956795BA95C9F700976105710565
:1015E00008959B01AC010A2E0694579547953795AF
:1015F0002795BA95C9F7620F731F841F951FA01D09
:1016000008952F923F924F925F926F927F928F92A6
:101610009F92AF92BF92CF92DF92EF92FF920F9381
:101620001F93CF93DF93CDB7DEB7CA1BDB0B0FB68B
:10163000F894DEBF0FBECDBF09942A883988488848
:101640005F846E847D848C849B84AA84B984C884DE
:10165000DF80EE80FD800C811B81AA81B981CE0FD5
:10166000D11D0FB6F894DEBF0FBECDBFED010895BA
:04167000F894FFCF1C
:101674000F059302A900F903B202A602A102150400
:101684003E059F029D0288000404FF0350035F038C
:101694006E03AF03CC0325633D253034670A002570
:1016A400633D253035670A0025633D253034750ACE
:0416B400000D0A001B
:00000001FF
