:100000000C9434000C9451000C9451000C94510049
:100010000C9451000C9451000C9451000C9451001C
:100020000C9451000C9451000C9451000C9451000C
:100030000C9451000C9451000C9453000C945100FA
:100040000C9451000C9451000C9451000C945100EC
:100050000C9451000C9451000C9451000C945100DC
:100060000C9451000C94510011241FBECFEFD8E026
:10007000DEBFCDBF11E0A0E0B1E0E0E1F1E002C001
:1000800005900D92A030B107D9F721E0A0E0B1E0D2
:1000900001C01D92A130B207E1F70E9480000C94CC
:1000A00086000C9400001F920F920FB60F9211243D
:1000B0008F939F93809100018F5F809300018091C7
:1000C0000001843631F495B180E2892785B9109218
:1000D00000019F918F910F900FBE0F901F90189568
:1000E00084B5826084BD85B5856085BD8CE987BD9A
:1000F00010920001EEE6F0E0808182608083089536
:100100008FEF84B90E9470007894FFCFF894FFCFEE
:00000001FF
