:100000000C9434000C9449000C9449000C94490061
:100010000C9449000C9449000C9449000C9449003C
:100020000C9449000C9449000C9449000C9449002C
:100030000C9449000C9449000C9449000C9449001C
:100040000C9449000C9449000C9449000C9449000C
:100050000C9449000C9449000C9449000C944900FC
:100060000C9449000C94490011241FBECFEFD8E036
:10007000DEBFCDBF11E0A0E0B1E0E4E1F1E002C0FD
:1000800005900D92AA30B107D9F70E947F000C9419
:1000900088000C9400009C01E1ECF0E090819861F4
:1000A0009083E2ECF0E090819660908390819F7E57
:1000B000908390819F7D90833093C5002093C400EE
:1000C0000895E0ECF0E0908195FFFDCF8093C600AD
:1000D0000895CF93DF93EC018881882331F0219636
:1000E0000E94610089918111FBCFDF91CF9108952A
:1000F0000E94690080E091E00E946900089587E60F
:1001000090E00E944B0083E091E00E947800FBCFDA
:04011000F894FFCF91
:0A0114000D0A0045453230390000A5
:00000001FF
