:100000000C9469000C94DA020C94FF020C948600A4
:100010000C9486000C9486000C9486000C94860048
:100020000C9486000C9486000C9486000C94860038
:100030000C9486000C9430040C9486000C9486007A
:100040000C9486000C9486000C9486000C94860018
:100050000C9486000C9486000C9486000C94860008
:100060000C9486000C9486000C9486000C948600F8
:100070000C9486000C9486000C9486000C948600E8
:100080000C9486000C9486000C9486000C948600D8
:100090000C9486000C9486000C9486000C948600C8
:1000A0000C9486000C9486000C9486000C948600B8
:1000B0000C94860005A84CCDB2D44EB93836A902AE
:1000C0000C50B9918688083CA6AAAA2ABE00000056
:1000D000803F11241FBECFEFD8E0DEBFCDBF11E0BF
:1000E000A0E0B1E0E6EFF5E102C005900D92A0338B
:1000F000B107D9F723E0A0E3B1E001C01D92A73A10
:10010000B207E1F70E9410050C94F90A0C94000064
:10011000ECE7F0E09081907F90839081892B808341
:10012000EAE7F0E080818064808380917A0086FD38
:10013000FCCF8091780090917900A0E0B0E0880F2A
:10014000991FAA1FBB1F880F991FAA1FBB1F0895C5
:10015000ECE7F0E080818064808380818F7780830A
:100160008081807F8083EAE7F0E0808187688083F8
:1001700008959093FC018093FB011092010210926C
:100180009401109200021092FF0110926D021092E1
:100190006C021092FE011092FD0110920302109267
:1001A00002021092070210920602109205021092AB
:1001B000040210929B0310929A03109296011092DF
:1001C00095010895E091FB01F091FC010190F0810F
:1001D000E02D80E895E20995E091FB01F091FC01AA
:1001E0000280F381E02D0995E091FB01F091FC0183
:1001F0000480F581E02D0995E091FB01F091FC016F
:100200000680F781E02D0995A091FB01B091FC01DA
:100210001896ED91FC91199754962D913C91559714
:1002200042E367E971E082ED92E0099581E0809315
:10023000010208951F93CF93DF93E091FB01F091AA
:10024000FC010688F789E02D0995E091FB01F0910A
:10025000FC010088F189E02D099510E022C0C12F32
:10026000012E000CDD0BE091FB01F091FC010288F6
:10027000F389E02D80E00995CC0FDD1FFE01E05DE4
:10028000FE4F91838083E091FB01F091FC01028895
:10029000F389E02D81E00995CA5CDC4F998388835E
:1002A0001F5F1233E4F2E091FB01F091FC01068440
:1002B000F785E02D099582E080930102DF91CF91CF
:1002C0001F910895E091FB01F091FC01008CF18DEC
:1002D000E02D62E380E391E0099590936D028093B5
:1002E0006C02E091FB01F091FC01008CF18DE02D9E
:1002F00062E386E393E009959093FE018093FD010C
:10030000E091FB01F091FC01028CF38DE02D8091D6
:100310006C0290916D020995909303028093020202
:10032000E091FB01F091FC01028CF38DE02D8091B6
:10033000FD019091FE0109959093070280930602BA
:10034000E091FB01F091FC01048CF58DE02D2091F2
:10035000000247E951E06091940182ED92E0099535
:100360009093050280930402E091FB01F091FC015F
:10037000068CF78DE02D099590939B0380939A034B
:10038000E091FB01F091FC0100A0F1A1E02D609152
:10039000060270910702AC01809102029091030263
:1003A0000995909396018093950110929401109273
:1003B0000002A091FB01B091FC011896ED91FC9117
:1003C000199754962D913C91559742E367E971E056
:1003D00082ED92E0099583E0809301020895CF9326
:1003E000DF93CDB7DEB760970FB6F894DEBF0FBED0
:1003F000CDBFE091FB01F091FC010284F385E02D7B
:1004000040E5BE016F5F7F4F80919501909196010D
:100410000995E091FB01F091FC010484F585E02D44
:10042000CE0101960995E091FB01F091FC01028457
:10043000F385E02D46E4BE016F5F7F4F80919A0304
:1004400090919B030995E091FB01F091FC010484DC
:10045000F585E02DCE0101960995E091FB01F09123
:10046000FC010284F385E02D46E5BE016F5F7F4FFE
:1004700080910202909103020995E091FB01F091B5
:10048000FC010484F585E02DCE0101960995E091EB
:10049000FB01F091FC010284F385E02D49E4BE01EB
:1004A0006F5F7F4F80910602909107020995E0915E
:1004B000FB01F091FC010484F585E02DCE0101964D
:1004C000099581E08093010260960FB6F894DEBF33
:1004D0000FBECDBFDF91CF91089580910102813091
:1004E00049F028F0823049F0833051F00CC00E946E
:1004F000E200F3CF0E941A01F0CF0E946201EDCF1B
:100500000E94EF01EACF81E090E0089517B81AB891
:100510008AB183608AB9089578940895F89408950B
:1005200030939F0320939E0310929C0310929D038F
:100530000895CF93DF93882319F08130E9F037C015
:1005400080919C039091A203891789F12091A303C4
:100550003091A40391E0980F90939C03C82FD0E0B2
:10056000CC0FDD1FC20FD31FE0919E03F0919F03BC
:100570000995998388831BC080919D039091A20364
:100580008917A9F02091A0033091A10391E0980F61
:1005900090939D03C82FD0E0CC0FDD1FC20FD31F57
:1005A000E0919E03F0919F03099599838883DF91E1
:1005B000CF9108951F920F920FB60F9211242F938F
:1005C0003F934F935F936F937F938F939F93AF93DB
:1005D000BF93EF93FF9380E00E949902FF91EF9108
:1005E000BF91AF919F918F917F916F915F914F914B
:1005F0003F912F910F900FBE0F901F9018951F9253
:100600000F920FB60F9211242F933F934F935F9346
:100610006F937F938F939F93AF93BF93EF93FF93CA
:1006200081E00E949902FF91EF91BF91AF919F915C
:100630008F917F916F915F914F913F912F910F908B
:100640000FBE0F901F9018951F93CF93DF93FC015F
:10065000562F172FEC01D695C795D695C795D695E9
:10066000C7959E01A5ECB0E20E9400089295829584
:100670008F7089279F70892768EE73E0869F9001AD
:10068000879F300D969F300D1124E21BF30BFF93D3
:10069000EF939E010E940008929582958F708927A2
:1006A0009F7089279F938F931F924F9382E291E0CF
:1006B0009F938F931F935F930E940F088DB79EB7F0
:1006C0000A960FB6F8949EBF0FBE8DBFDF91CF91F3
:1006D0001F910895DC0190E040E050E00DC0E92F4B
:1006E000F0E0EE0FFF1FEA0FFB1F20813181421760
:1006F000530708F4A9019F5F961788F3CA0108956C
:10070000BC0180E090E00E9447062EEE34E045EB0D
:100710005FE30E94A6050E941806CB01089563308E
:10072000A8F12330B0F1FC0160817181FA012081D0
:1007300031812617370750F444815581241B350B2E
:10074000FC0164817581641B750B13C0621773070C
:1007500060F4FC01848195819B01281B390BFA010F
:1007600064817581681B790B04C060E070E020E053
:1007700030E0C9010E94CA0728E631E0629FC0014B
:10078000639F900D729F900D1124089580E090E07A
:10079000089580E090E00895BC0180E090E00E9420
:1007A00047062EE23AEF4EE85CE30E9414070E94EF
:1007B000180680E090E00E9447060E94A10520E014
:1007C00030E04AE754E40E9414070E941806CB0167
:1007D0000895FB019C01369527953695279536950A
:1007E0002795A5ECB0E20E940008929582958F7043
:1007F00089279F7089278E9F90018F9F300D9E9F24
:10080000300D1124369527953695279536952795E1
:100810000E940008929582958F7089279F70892782
:10082000849F9001859F300D949F300D1124369543
:10083000279536952795369527950E94000892951D
:1008400082958F7089279F70892728EE33E0AC014D
:10085000429FC001439F900D529F900D1124089517
:100860001F920F920FB60F9211248F939F93809136
:10087000A5039091A60301969093A6038093A503E8
:100880009F918F910F900FBE0F901F901895E1E8E8
:10089000F0E0808184608083EFE6F0E08081816019
:1008A00080831092A6031092A5030895809184007E
:1008B0009091850008958F929F92AF92BF92CF92B0
:1008C000DF92EF92FF92BC0180E090E020E034E202
:1008D00044EF50E00E94DE07CA01B9010E944706BA
:1008E0006B017C010E945604BC0180E090E00E94F4
:1008F0004706A70196010E9414074B015C0120E006
:1009000030E040E857E4C701B6010E9414076B01CC
:100910007C016091A5037091A60380E090E00E94A5
:100920004706A70196010E94140720E030E048EC3A
:1009300052E40E9414079B01AC01C501B4010E945E
:1009400035050E941806CB01FF90EF90DF90CF9005
:10095000BF90AF909F908F9008951092A603109231
:10096000A503089510928500109284000E94AD04A2
:10097000089580E091E00E945B040895A0E0B0E05B
:10098000880F991FAA1FBB1F880F991FAA1FBB1F83
:100990009C01AD01220F331F441F551F220F331F2F
:1009A000441F551F60E074E284EF90E00E94DE0770
:1009B000C901019708950E94BE049C01E1ECF0E09A
:1009C000908198619083E2ECF0E090819660908352
:1009D00090819F7E908390819F7D90833093C5000E
:1009E0002093C40008959091C00095FFFCCF8093A0
:1009F000C60008950F931F93CF93DF938C01C0E03F
:100A0000D0E003C00E94F3042196F801EC0FFD1F13
:100A100080818111F7CFDF91CF911F910F910895C0
:100A2000CF93DF93CDB7DEB7A2970FB6F894DEBFB2
:100A30000FBECDBF82E2E0E0F1E0DE011196019051
:100A40000D928A95E1F7CE0101960E94B9000E94AD
:100A50006D0280E090E0A2960FB6F894DEBF0FBE64
:100A6000CDBFDF91CF9108955058BB27AA270E9490
:100A70004C050C94C6060E948D0638F00E94940620
:100A800020F039F49F3F19F426F40C948A060EF4F2
:100A9000E095E7FB0C948406E92F0E94EB0658F3DF
:100AA000BA17620773078407950720F079F4A6F553
:100AB0000C940D070EF4E0950B2EBA2FA02D0B0110
:100AC000B90190010C01CA01A0011124FF27591B93
:100AD00099F0593F50F4503E68F11A16F040A22F99
:100AE000232F342F4427585FF3CF4695379527950A
:100AF000A795F0405395C9F77EF41F16BA0B620B09
:100B0000730B840BBAF09150A1F0FF0FBB1F661F4F
:100B1000771F881FC2F70EC0BA0F621F731F841F92
:100B200048F4879577956795B795F7959E3F08F0B8
:100B3000B0CF9395880F08F09927EE0F979587957A
:100B400008950E949D06E3950C94D7060E94BA056D
:100B50000C94C6060E94940658F00E948D0640F040
:100B600029F45F3F29F00C94840651110C940E0770
:100B70000C948A060E94EB0668F39923B1F355237F
:100B800091F3951B550BBB27AA27621773078407A0
:100B900038F09F5F5F4F220F331F441FAA1FA9F336
:100BA00035D00E2E3AF0E0E832D091505040E69524
:100BB000001CCAF72BD0FE2F29D0660F771F881F85
:100BC000BB1F261737074807AB07B0E809F0BB0B78
:100BD000802DBF01FF2793585F4F3AF09E3F51058C
:100BE00078F00C9484060C940E075F3FE4F3983E73
:100BF000D4F3869577956795B795F7959F5FC9F775
:100C0000880F911D9695879597F90895E1E0660FF5
:100C1000771F881FBB1F621773078407BA0720F06E
:100C2000621B730B840BBA0BEE1F88F7E0950895D7
:100C30000E94F30688F09F5798F0B92F9927B75173
:100C4000B0F0E1F0660F771F881F991F1AF0BA9570
:100C5000C9F714C0B13091F00E940D07B1E00895BA
:100C60000C940D07672F782F8827B85F39F0B93FAC
:100C7000CCF3869577956795B395D9F73EF4909523
:100C80008095709561957F4F8F4F9F4F0895E894A1
:100C900009C097FB3EF490958095709561957F4FC4
:100CA0008F4F9F4F9923A9F0F92F96E9BB27939572
:100CB000F695879577956795B795F111F8CFFAF482
:100CC000BB0F11F460FF1BC06F5F7F4F8F4F9F4FB3
:100CD00016C0882311F096E911C0772321F09EE811
:100CE000872F762F05C0662371F096E8862F70E077
:100CF00060E02AF09A95660F771F881FDAF7880F51
:100D00009695879597F9089597F99F6780E870E021
:100D100060E008959FEF80EC089500240A94161671
:100D2000170618060906089500240A9412161306D9
:100D30001406050608950C948A060E94F306D8F35B
:100D4000E894E0E0BB279F57F0F02AED3FE049EC44
:100D500006C0EE0FBB0F661F771F881F28F0B23A40
:100D600062077307840728F0B25A620B730B840B77
:100D7000E3959A9572F7803830F49A95BB0F661F09
:100D8000771F881FD2F790480C948307092E03948D
:100D9000000C11F4882352F0BB0F40F4BF2B11F468
:100DA00060FF04C06F5F7F4F8F4F9F4F0895EF9399
:100DB000E0FF07C0A2EA2AED3FE049EC5FEB0E94AA
:100DC0004C050E94C6060F90039401FC9058E4EB7A
:100DD000F0E00C94B60757FD9058440F551F59F09A
:100DE0005F3F71F04795880F97FB991F61F09F3F18
:100DF00079F087950895121613061406551FF2CF41
:100E00004695F1DF08C0161617061806991FF1CF90
:100E100086957105610508940895E894BB276627B7
:100E20007727CB0197F908950E9427070C94C606EF
:100E30000E948D0638F00E94940620F0952311F050
:100E40000C9484060C948A0611240C940E070E94BC
:100E5000EB0670F3959FC1F3950F50E0551F629F0D
:100E6000F001729FBB27F00DB11D639FAA27F00D03
:100E7000B11DAA1F649F6627B00DA11D661F829F2A
:100E80002227B00DA11D621F739FB00DA11D621F0F
:100E9000839FA00D611D221F749F3327A00D611D2C
:100EA000231F849F600D211D822F762F6A2F11240E
:100EB0009F5750409AF0F1F088234AF0EE0FFF1F41
:100EC000BB1F661F771F881F91505040A9F79E3F98
:100ED000510580F00C9484060C940E075F3FE4F3F8
:100EE000983ED4F3869577956795B795F795E795EE
:100EF0009F5FC1F7FE2B880F911D9695879597F9F7
:100F000008959F3F31F0915020F48795779567952C
:100F1000B795880F911D9695879597F90895DF935A
:100F2000CF931F930F93FF92EF92DF927B018C017F
:100F3000689406C0DA2EEF010E942707FE01E894AC
:100F4000A5912591359145915591A6F3EF010E9408
:100F50004C05FE019701A801DA9469F7DF90EF9044
:100F6000FF900F911F91CF91DF9108959F938F93E1
:100F70007F936F93FF93EF939B01AC010E94140743
:100F8000EF91FF910E948F072F913F914F915F91B9
:100F90000C941407AA1BBB1B51E107C0AA1FBB1F5F
:100FA000A617B70710F0A61BB70B881F991F5A95F5
:100FB000A9F780959095BC01CD010895A1E21A2E64
:100FC000AA1BBB1BFD010DC0AA1FBB1FEE1FFF1FED
:100FD000A217B307E407F50720F0A21BB30BE40B3D
:100FE000F50B661F771F881F991F1A9469F7609584
:100FF0007095809590959B01AC01BD01CF0108953E
:10100000A29FB001B39FC001A39F700D811D112449
:10101000911DB29F700D811D1124911D0895AEE0A8
:10102000B0E0E5E1F8E00C94D00A0D891E8986E075
:101030008C831A8309838FEF9FE79E838D83AE0194
:10104000475E5F4F6F89788DCE0101960E9431080F
:10105000EF81F885E00FF11F10822E96E4E00C94EA
:10106000EC0AABE0B0E0E7E3F8E00C94C20A6C01F4
:101070007B018A01FC0117821682838181FFCCC12A
:10108000CE0101963C01F6019381F70193FD859114
:1010900093FF81917F01882309F4BAC1853239F425
:1010A00093FD859193FF81917F01853229F4B601EB
:1010B00090E00E94280AE7CF912C212C312CFFE1EF
:1010C000F315D8F08B3279F038F4803279F083322E
:1010D000A1F4232D20611DC08D3261F0803369F4AD
:1010E000232D216016C0832D8260382EE32DE4600D
:1010F0003E2E2AC0F32DF8601DC037FC2DC020ED18
:10110000280F2A3040F08E32B9F436FC81C1232DED
:101110002064322E19C036FE06C08AE0989E200D4B
:101120001124922E11C0EAE02E9E200D1124222EB1
:10113000F32DF0623F2E08C08C3621F4832D806899
:10114000382E02C0883641F4F70193FD859193FF54
:1011500081917F018111B3CF982F9F7D955493305A
:1011600028F40C5F1F4F9FE399830DC0833631F045
:10117000833771F0833509F059C021C0F8018081AF
:1011800089830E5F1F4F88248394912C530113C0D1
:101190002801F2E04F0E511CF801A080B18036FE0C
:1011A00003C0692D70E002C06FEF7FEFC5010E94A0
:1011B0001D0A4C018201F32DFF773F2E16C0280136
:1011C00022E0420E511CF801A080B18036FE03C01F
:1011D000692D70E002C06FEF7FEFC5010E94120A17
:1011E0004C01F32DF0683F2E820133FC1BC0822D91
:1011F00090E088169906B0F4B60180E290E00E9473
:10120000280A2A94F4CFF50137FC859137FE8191A5
:101210005F01B60190E00E94280A21102A9421E083
:10122000821A91088114910471F7E8C0843611F094
:10123000893641F5F80137FE07C0608171818281EE
:1012400093810C5F1F4F08C060817181072E000CD5
:10125000880B990B0E5F1F4FF32DFF763F2E97FFE4
:1012600009C090958095709561957F4F8F4F9F4FE6
:10127000F0683F2E2AE030E0A3010E94640A882E25
:10128000861845C0853731F4232D2F7EB22E2AE0F3
:1012900030E025C0932D997FB92E8F36C1F018F418
:1012A000883579F0B5C0803719F0883721F0B0C0A3
:1012B000E92FE061BE2EB4FE0DC0FB2DF460BF2E01
:1012C00009C034FE0AC0292F2660B22E06C028E0CD
:1012D00030E005C020E130E002C020E132E0F8015A
:1012E000B7FE07C060817181828193810C5F1F4FBF
:1012F00006C06081718180E090E00E5F1F4FA30106
:101300000E94640A882E8618FB2DFF773F2E36FE3A
:101310000DC0232D2E7FA22E891458F434FE0BC04D
:1013200032FC09C0832D8E7EA82E05C0B82CA32CBC
:1013300003C0B82C01C0B92CA4FE0FC0FE01E80DFB
:10134000F11D8081803321F49A2D997EA92E09C048
:10135000A2FE06C0B394B39404C08A2D867809F027
:10136000B394A3FC11C0A0FE06C0B21488F4280CEC
:10137000922C9B180EC0B21460F4B60180E290E08B
:101380000E94280AB394F7CFB21418F42B1802C0A5
:10139000982C212CA4FE10C0B60180E390E00E949E
:1013A000280AA2FE17C0A1FC03C088E790E002C093
:1013B00088E590E0B6010CC08A2D867859F0A1FE30
:1013C00002C08BE201C080E2A7FC8DE2B60190E092
:1013D0000E94280A891438F4B60180E390E00E9444
:1013E000280A9A94F7CF8A94F301E80DF11D8081C1
:1013F000B60190E00E94280A8110F5CF222009F45E
:1014000042CEB60180E290E00E94280A2A94F6CFEC
:10141000F6018681978102C08FEF9FEF2B96E2E164
:101420000C94DE0AFC010590615070400110D8F761
:10143000809590958E0F9F1F0895FC01615070401C
:1014400001900110D8F7809590958E0F9F1F0895F9
:101450000F931F93CF93DF93FB01238121FD03C0E3
:101460008FEF9FEF2CC022FF16C046815781248149
:1014700035814217530744F4A081B1819D012F5F4C
:101480003F4F318320838C93268137812F5F3F4FDD
:101490003783268314C08B01EC01FB010084F185A6
:1014A000E02D0995892BE1F6D80116968D919C9136
:1014B0001797019617969C938E931697CE01DF91FE
:1014C000CF911F910F910895FA01AA27283051F169
:1014D000203181F1E8946F936E7F6E5F7F4F8F4F65
:1014E0009F4FAF4FB1E03ED0B4E03CD0670F781FC4
:1014F000891F9A1FA11D680F791F8A1F911DA11DA9
:101500006A0F711D811D911DA11D20D009F46894E1
:101510003F912AE0269F11243019305D3193DEF689
:10152000CF010895462F4770405D4193B3E00FD03F
:10153000C9F7F6CF462F4F70405D4A3318F0495D2A
:1015400031FD4052419302D0A9F7EACFB4E0A6950D
:101550009795879577956795BA95C9F7009761052F
:10156000710508959B01AC010A2E06945795479585
:1015700037952795BA95C9F7620F731F841F951F7A
:10158000A01D08952F923F924F925F926F927F928B
:101590008F929F92AF92BF92CF92DF92EF92FF9283
:1015A0000F931F93CF93DF93CDB7DEB7CA1BDB0B2F
:1015B0000FB6F894DEBF0FBECDBF09942A883988D4
:1015C00048885F846E847D848C849B84AA84B984DB
:1015D000C884DF80EE80FD800C811B81AA81B981E7
:1015E000CE0FD11D0FB6F894DEBF0FBECDBFED01FB
:0615F0000895F894FFCFFE
:1015F600DB048602A800470490022403FA048E0244
:101606008C028800B904B2046A0380038F03CC03FA
:10161600E90325633D253032642E253032640A0005
:00000001FF
