S00D000045453230392E73726563F2
S11300000C94EA000C946B030C9490030C94070179
S11300100C9407010C9407010C9407010C9407013C
S11300200C9407010C9407010C9407010C9407012C
S11300300C9407010C9407010C9407010C9407011C
S11300400C9407010C9407010C9407010C9407010C
S11300500C9407010C9407010C9407010C940701FC
S11300600C9407010C9407010C9407010C940701EC
S11300700C9407010C9407010C9407010C940701DC
S11300800C9407010C9407010C9407010C940701CC
S11300900C9407010C9407010C9407010C940701BC
S11300A00C9407010C9407010C9407010C940701AC
S11300B00C94070105A84CCDB2D44EB93836A90228
S11300C00C50B9918688083CA6AAAA2ABE00000052
S11300D0803F6E616E00696E660000407A10F35ACC
S11300E000A0724E18090010A5D4E80000E8764874
S11300F0170000E40B54020000CA9A3B000000E120
S1130100F505000080969800000040420F000000B2
S1130110A08601000000102700000000E803000092
S113012000006400000000000A000000000001005C
S1130130000000002C76D888DC674F0823DFC1DF7D
S1130140AE59E1B1B796E5E3E453C63AE651997680
S113015096E8E6C28426EB898C9B62ED407C6FFCBA
S1130160EFBC9C9F40F2BAA56FA5F490055A2AF7FC
S11301705C936B6CF9676DC11BFCE0E40D47FEF505
S113018020E6B500D0ED902E03009435770500806D
S1130190841E080000204E0A000000C80C333333CC
S11301A0330F986E12831141EF8D2114893BE6556C
S11301B016CFFEE6DB18D1844B381BF77C1D901D4F
S11301C0A4BBE424203284725E228100C9F124ECB1
S11301D0A1E53D2711241FBECFEFD8E0DEBFCDBF80
S11301E011E0A0E0B1E0E2E7FDE102C005900D926C
S11301F0A034B107D9F722E0A0E4B1E001C01D9218
S1130200AD3EB207E1F70E9446060C94B70E0C947B
S11302100000ECE7F0E09081907F90839081892B3F
S11302208083EAE7F0E080818064808380917A00B3
S113023086FDFCCF8091780090917900A0E0B0E039
S1130240880F991FAA1FBB1F880F991FAA1FBB1FC6
S11302500895ECE7F0E080818064808380818F776B
S113026080838081807F8083EAE7F0E080818768F3
S11302708083089590930C0280930B0210921102D4
S11302801092A4011092100210920F0210921902FF
S11302901092180210920E0210920D021092130284
S11302A01092120210921702109216021092150266
S11302B0109214021092E3021092E2021092A6012C
S11302C01092A5010895E0910B02F0910C020190A7
S11302D0F081E02D80E895E20995E0910B02F09120
S11302E00C020280F381E02D0995E0910B02F0915C
S11302F00C020480F581E02D0995E0910B02F09148
S11303000C020680F781E02D0995A0910B02B091B3
S11303100C021896ED91FC91199754962D913C91ED
S1130320559742E367EA71E08AE192E0099581E03A
S11303308093110208951F93CF93DF93E0910B02F2
S1130340F0910C020688F789E02D0995E0910B02E3
S1130350F0910C020088F189E02D099510E022C08B
S1130360C12F012E000CDD0BE0910B02F0910C0269
S11303700288F389E02D80E00995CC0FDD1FFE0192
S1130380E05CFE4F91838083E0910B02F0910C02BC
S11303900288F389E02D81E00995C258DD4F9983E5
S11303A088831F5F1233E4F2E0910B02F0910C0298
S11303B00684F785E02D099582E080931102DF9190
S11303C0CF911F910895E0910B02F0910C02008CE3
S11303D0F18DE02D62E380E491E009959093190298
S11303E080931802E0910B02F0910C02008CF18DC5
S11303F0E02D62E38EE792E0099590930E028093DC
S11304000D02E0910B02F0910C02028CF38DE02DB1
S11304108091180290911902099590931302809388
S11304201202E0910B02F0910C02028CF38DE02D8C
S113043080910D0290910E0209959093170280937A
S11304401602E0910B02F0910C02048CF58DE02D64
S113045022E347EA51E062E38AE192E0099590934E
S1130460150280931402E0910B02F0910C02068CA9
S1130470F78DE02D09959093E3028093E202E091D9
S11304800B02F0910C0200A0F1A1E02D6091160284
S113049070911702AC018091120290911302099598
S11304A09093A6018093A5011092A40110921002CA
S11304B0A0910B02B0910C021896ED91FC91199742
S11304C054962D913C91559742E367EA71E08AE195
S11304D092E0099583E0809311020895CF93DF930E
S11304E0CDB7DEB760970FB6F894DEBF0FBECDBFB1
S11304F0E0910B02F0910C020284F385E02D40E5BB
S1130500BE016F5F7F4F8091A5019091A60109956F
S1130510E0910B02F0910C020484F585E02DCE01EC
S113052001960995E0910B02F0910C020284F38587
S1130530E02D46E4BE016F5F7F4F8091E20290910F
S1130540E3020995E0910B02F0910C020484F58515
S1130550E02DCE0101960995E0910B02F0910C0279
S11305600284F385E02D46E5BE016F5F7F4F8091E5
S11305701202909113020995E0910B02F0910C0282
S11305800484F585E02DCE0101960995E0910B02D6
S1130590F0910C020284F385E02D49E4BE016F5F03
S11305A07F4F80911602909117020995E0910B02FA
S11305B0F0910C020484F585E02DCE010196099595
S11305C081E08093110260960FB6F894DEBF0FBEEF
S11305D0CDBFDF91CF91089580911102813049F010
S11305E028F0823049F0833051F00CC00E9463013E
S11305F0F3CF0E949B01F0CF0E94E301EDCF0E9454
S11306006E02EACF81E090E0089581E187B91AB8DB
S11306108AB183608AB98BB18C608BB90895789460
S11306200895F89408954093EA023093E7022093E2
S1130630E602E9E6F0E080818F6080838DB3836019
S11306408DBB1092E4021092E5020895CF93DF93DC
S1130650882319F08130F9F03BC09091E402809135
S1130660EA029817A9F12091EB023091EC028091F3
S1130670E40291E0980F9093E402C82FD0E0CC0FED
S1130680DD1FC20FD31FE091E602F091E702099546
S1130690998388831DC09091E5028091EA0298179E
S11306A0B9F02091E8023091E9028091E50291E0ED
S11306B0980F9093E502C82FD0E0CC0FDD1FC20F36
S11306C0D31FE091E602F091E702099599838883AC
S11306D0DF91CF9108951F920F920FB60F921124BC
S11306E02F933F934F935F936F937F938F939F9336
S11306F0AF93BF93EF93FF9380E00E942603FF9193
S1130700EF91BF91AF919F918F917F916F915F9185
S11307104F913F912F910F900FBE0F901F901895FE
S11307201F920F920FB60F9211242F933F934F9362
S11307305F936F937F938F939F93AF93BF93EF9345
S1130740FF9381E00E942603FF91EF91BF91AF9147
S11307509F918F917F916F915F914F913F912F91D5
S11307600F900FBE0F901F901895DC0190E040E0B1
S113077050E00DC0E92FF0E0EE0FFF1FEA0FFB1F62
S1130780208131814217530708F4A9019F5F96170E
S113079088F3CA010895BC0180E090E00E94170725
S11307A02EEE34E045EB5FE30E946F060E94E806FC
S11307B0CB010895633008F444C0233008F444C0E6
S11307C0FC0160817181FA0120813181261737078C
S11307D050F444815581241B350BFC0164817581DF
S11307E0641B750B13C06217730760F4FC018481EA
S11307F095819B01281B390BFA0164817581681B63
S1130800790B04C060E070E020E030E0C9010E9490
S1130810910C072E000C880B990B0E94190720E0FD
S113082030E044EB53E40E94E4070E94E1069B019C
S1130830772324F422273327261B370B822F932F69
S1130840089580E090E0089580E090E00895BC0170
S113085080E090E00E9417072EE23AEF4EE85CE356
S11308600E94E4070E94E80680E090E00E941707D7
S11308700E946A0620E030E04AE754E40E94E4075C
S11308800E94E806CB010895FB019C01369527954B
S11308903695279536952795A5ECB0E20E94C70CAE
S11308A0929582958F7089279F7089278E9F9001DA
S11308B08F9F300D9E9F300D1124369527953695C8
S11308C02795369527950E94C70C929582958F702F
S11308D089279F708927849F9001859F300D949F5D
S11308E0300D1124369527953695279536952795FD
S11308F00E94C70C929582958F7089279F708927D3
S1130900BC0180E090E00E94170720E030E04AE755
S113091054E40E94E4070E94E806CB010895E1E84C
S1130920F0E08081846080830895109285001092A5
S113093084000895809184009091850008950E9418
S11309409A04BC0180E090E00E94170720E030E0A8
S113095040E851E40E94E4070E94E806CB010895B0
S113096080E091E00E949F040895FF920F931F93EB
S1130970CF93DF938C01D62FF72EC42F493409F47B
S113098065C020F4463409F476C028C1403509F422
S1130990CCC0463509F022C1BC0180E090E00E9441
S11309A0170720E030E04AE754E40E946F06462F20
S11309B0572FE82FF92F98013695279536952795C7
S11309C036952795A5ECB0E20E94C70C92958295C6
S11309D08F7089279F70892768EE73E0869F900146
S11309E0879F300D969F300D112402171307B9F419
S11309F0FF93EF935F934F931F92CF9382E291E023
S1130A009F938F93FF92DF930E94370E8DB79EB70B
S1130A100A960FB6F8949EBF0FBE8DBFDFC0FF933A
S1130A20EF935F934F931F92CF938BE291E09F9349
S1130A308F93FF92DF930E94370E8DB79EB70A966D
S1130A400FB6F8949EBF0FBE8DBFC8C01F938F937F
S1130A501F924F9384E391E09F938F937F936F93BF
S1130A600E94370E8DB79EB708960FB6F8949EBFB6
S1130A700FBE8DBFB3C0BC0180E090E00E94170799
S1130A8020E030E04AE754E40E946F06462F572FD7
S1130A90E82FF92F980136952795369527953695A1
S1130AA02795A5ECB0E20E94C70C929582958F70B1
S1130AB089279F70892768EE73E0869F9001879F3E
S1130AC0300D969F300D112402171307B9F4FF93CC
S1130AD0EF935F934F931F92CF9382E291E09F93A2
S1130AE08F93FF92DF930E94370E8DB79EB70A96BD
S1130AF00FB6F8949EBF0FBE8DBF70C0FF93EF93E7
S1130B005F934F931F92CF938BE291E09F938F93C8
S1130B10FF92DF930E94370E8DB79EB70A960FB6E9
S1130B20F8949EBF0FBE8DBF59C0BC0180E090E019
S1130B300E94170720E030E04AE754E40E946F0661
S1130B40462F572FE82FF92F98013695279536957C
S1130B50279536952795A5ECB0E20E94C70C92958F
S1130B6082958F7089279F70892768EE73E0869F2E
S1130B709001879F300D969F300D112402171307A3
S1130B80B9F4FF93EF935F934F931F92CF9382E255
S1130B9091E09F938F93FF92DF930E94370E8DB75E
S1130BA09EB70A960FB6F8949EBF0FBE8DBF16C0AF
S1130BB0FF93EF935F934F931F92CF938BE291E058
S1130BC09F938F93FF92DF930E94370E8DB79EB74A
S1130BD00A960FB6F8949EBF0FBE8DBFDF91CF91DA
S1130BE01F910F91FF900895A0E0B0E0880F991F26
S1130BF0AA1FBB1F880F991FAA1FBB1F9C01AD0111
S1130C00220F331F441F551F220F331F441F551F2C
S1130C1060E074E284EF90E00E94A50CC9010197A2
S1130C2008950E94F4059C01E1ECF0E09081986144
S1130C309083E2ECF0E090819660908390819F7EB7
S1130C40908390819F7D90833093C5002093C4004E
S1130C5008959091C00095FFFCCF8093C60008953D
S1130C600F931F93CF93DF938C01C0E0D0E003C0B8
S1130C700E9429062196F801EC0FFD1F8081811145
S1130C80F7CFDF91CF911F910F910895CF93DF9309
S1130C90CDB7DEB7A2970FB6F894DEBF0FBECDBFB7
S1130CA082E2E0E0F1E0DE01119601900D928A9576
S1130CB0E1F7CE0101960E943A010E94EC0280E025
S1130CC090E0A2960FB6F894DEBF0FBECDBFDF91C1
S1130CD0CF9108950E946D07E3950C94A7070E9495
S1130CE083060C9496070E94640758F00E945D07DF
S1130CF040F029F45F3F29F00C94540751110C94EF
S1130D00DE070C945A070E94BB0768F39923B1F3DA
S1130D10552391F3951B550BBB27AA27621773071D
S1130D20840738F09F5F5F4F220F331F441FAA1FB1
S1130D30A9F335D00E2E3AF0E0E832D0915050406D
S1130D40E695001CCAF72BD0FE2F29D0660F771F1B
S1130D50881FBB1F261737074807AB07B0E809F001
S1130D60BB0B802DBF01FF2793585F4F3AF09E3F86
S1130D70510578F00C9454070C94DE075F3FE4F3BC
S1130D80983ED4F3869577956795B795F7959F5FC9
S1130D90C9F7880F911D9695879597F90895E1E015
S1130DA0660F771F881FBB1F621773078407BA0774
S1130DB020F0621B730B840BBA0BEE1F88F7E095CF
S1130DC008950E94E8066894B1110C94DE07089512
S1130DD00E94C30788F09F5798F0B92F9927B751FD
S1130DE0B0F0E1F0660F771F881F991F1AF0BA95CB
S1130DF0C9F714C0B13091F00E94DD07B1E0089545
S1130E000C94DD07672F782F8827B85F39F0B93F36
S1130E10CCF3869577956795B395D9F73EF490957D
S1130E208095709561957F4F8F4F9F4F0895E894FB
S1130E3009C097FB3EF490958095709561957F4F1E
S1130E408F4F9F4F9923A9F0F92F96E9BB279395CC
S1130E50F695879577956795B795F111F8CFFAF4DC
S1130E60BB0F11F460FF1BC06F5F7F4F8F4F9F4F0D
S1130E7016C0882311F096E911C0772321F09EE86B
S1130E80872F762F05C0662371F096E8862F70E0D1
S1130E9060E02AF09A95660F771F881FDAF7880FAB
S1130EA09695879597F9089597F99F6780E870E07C
S1130EB060E008959FEF80EC089500240A941616CC
S1130EC0170618060906089500240A941216130634
S1130ED01406050608950C945A070E94C307D8F314
S1130EE0E894E0E0BB279F57F0F02AED3FE049EC9F
S1130EF006C0EE0FBB0F661F771F881F28F0B23A9B
S1130F0062077307840728F0B25A620B730B840BD1
S1130F10E3959A9572F7803830F49A95BB0F661F63
S1130F20771F881FD2F790480C94B908092E0394B0
S1130F30000C11F4882352F0BB0F40F4BF2B11F4C2
S1130F4060FF04C06F5F7F4F8F4F9F4F0895EF93F3
S1130F50E0FF07C0A2EA2AED3FE049EC5FEB0E9404
S1130F6062080E9496070F90039401FC9058E4EBEA
S1130F70F0E00C94EC0857FD9058440F551F59F0BD
S1130F805F3F71F04795880F97FB991F61F09F3F72
S1130F9079F087950895121613061406551FF2CF9B
S1130FA04695F1DF08C0161617061806991FF1CFEB
S1130FB086957105610508940895E894BB27662712
S1130FC07727CB0197F908950E94F7070C949607A9
S1130FD00E945D0738F00E94640720F0952311F009
S1130FE00C9454070C945A0711240C94DE070E94A5
S1130FF0BB0770F3959FC1F3950F50E0551F629F97
S1131000F001729FBB27F00DB11D639FAA27F00D5D
S1131010B11DAA1F649F6627B00DA11D661F829F84
S11310202227B00DA11D621F739FB00DA11D621F69
S1131030839FA00D611D221F749F3327A00D611D86
S1131040231F849F600D211D822F762F6A2F112468
S11310509F5750409AF0F1F088234AF0EE0FFF1F9B
S1131060BB1F661F771F881F91505040A9F79E3FF2
S1131070510580F00C9454070C94DE075F3FE4F3B1
S1131080983ED4F3869577956795B795F795E79548
S11310909F5FC1F7FE2B880F911D9695879597F951
S11310A008950E945D0738F00E94640720F039F427
S11310B09F3F19F426F40C945A070EF4E095E7FBCD
S11310C00C945407E92F0E94BB0758F3BA17620720
S11310D073078407950720F079F4A6F50C94DD07CF
S11310E00EF4E0950B2EBA2FA02D0B01B90190013F
S11310F00C01CA01A0011124FF27591B99F0593F83
S113110050F4503E68F11A16F040A22F232F342FCA
S11311104427585FF3CF469537952795A795F04018
S11311205395C9F77EF41F16BA0B620B730B840B2D
S1131130BAF09150A1F0FF0FBB1F661F771F881FE5
S1131140C2F70EC0BA0F621F731F841F48F487953D
S113115077956795B795F7959E3F08F0B0CF93952F
S1131160880F08F09927EE0F9795879508959F3F6C
S113117031F0915020F4879577956795B795880F4E
S1131180911D9695879597F90895DF93CF931F93B3
S11311900F93FF92EF92DF927B018C01689406C05B
S11311A0DA2EEF010E94F707FE01E894A59125913C
S11311B0359145915591A6F3EF010E946208FE0115
S11311C09701A801DA9469F7DF90EF90FF900F91EF
S11311D01F91CF91DF9108959F938F937F936F9386
S11311E0FF93EF939B01AC010E94E407EF91FF9101
S11311F00E94C5082F913F914F915F910C94E40791
S1131200A0E1B0E0E6E0F9E00C94D60C7C011B010F
S11312106A01FC0117821682838181FF44C39E0107
S11312202F5F3F4F3901F7019381F10193FD8591C0
S113123093FF81911F01882309F431C3853239F466
S113124093FD859193FF81911F01853239F4B70194
S113125090E00E94FB0D56016501E5CF10E0512C92
S1131260912CFFE1F915D8F08B3279F038F4803203
S113127079F08332A1F4F92DF0612EC08D3261F042
S1131280803369F4292D21602DC0392D3260932ECD
S1131290892D8460982E2AC0E92DE86015C097FC3A
S11312A02DC020ED280F2A3088F496FE06C03AE0BF
S11312B0139F200D1124122F19C08AE0589E200D6F
S11312C01124522EE92DE0629E2E10C08E3231F48C
S11312D096FCE5C2F92DF0649F2E08C08C3621F4EB
S11312E0292D2068922E02C0883641F4F10193FD25
S11312F0859193FF81911F018111B3CF9BEB980FCF
S1131300933020F4992D9061805E07C09BE9980F7B
S1131310933008F066C1992D9F7E96FF16E09F7367
S1131320992E853619F49064992E08C0863621F4D6
S1131330392F3068932E02C01111115097FE07C047
S11313401C3350F444244394410E27E00BC018305E
S113135038F027E017E005C027E09CE3492E02C0DF
S1131360212F412C560184E0A80EB11CF6016081A6
S1131370718182819381042DA3010E940D0D6C0162
S1131380F981FC87F0FF02C0F3FF06C091FC06C0A0
S113139092FE06C000E205C00DE203C00BE201C0EC
S11313A000E08C858C7019F001115AC29BC297FE23
S11313B010C04C0CFC85F4FF04C08A81813309F40D
S11313C04A94141474F528E0241578F588E0482E1E
S11313D02CC096FC2AC0812F90E08C159D059CF0B2
S11313E03CEFC3163FEFD30674F0892D8068982E26
S11313F00AC0E2E0F0E0EC0FFD1FE10FF11D808177
S1131400803319F411501111F4CF97FE0EC0442407
S11314104394410E812F90E0C816D9062CF41C1970
S113142004C04424439401C010E097FE06C01C1479
S11314301D0434F4C601019605C085E090E002C0A5
S113144081E090E001110196112331F0212F30E069
S11314502F5F3F4F820F931F252D30E08217930794
S113146014F4581A01C0512C892D897049F455205F
S113147039F0B70180E290E00E94FB0D5A94F7CF57
S1131480002329F0B701802F90E00E94FB0D93FC0C
S113149009C0552039F0B70180E390E00E94FB0DAC
S11314A05A94F7CF97FE4CC04601D7FE02C0812C58
S11314B0912CC60188199909F301E80FF91FFE87D9
S11314C0ED87960124193109388B2F87012F10E0FD
S11314D01195019511093FEF8316930629F4B7017D
S11314E08EE290E00E94FB0DC814D9044CF08F8565
S11314F098898815990524F4ED85FE85818101C0BC
S113150080E3F1E08F1A91082D853E852F5F3F4FD0
S11315103E872D87801691062CF0B70190E00E943B
S1131520FB0DD9CFC814D90441F49A81963320F421
S1131530953319F43C8534FF81E3B70190E04EC044
S11315408A81813319F09C859F7E9C87B70190E046
S11315500E94FB0D111105C094FC18C085E690E0B3
S113156017C0B7018EE290E00E94FB0D1E5F82E07F
S113157001E0080FF301E80FF11D8081B70190E04D
S11315800E94FB0D802F0113F3CFE6CF85E490E09A
S1131590B7010E94FB0DD7FC06C0C114D10441F46D
S11315A0EC85E4FF05C0D194C194D1088DE201C05B
S11315B08BE2B70190E00E94FB0D80E32AE0C216A3
S11315C0D1042CF08F5FFAE0CF1AD108F7CFB7011E
S11315D090E00E94FB0DB701C601C0960E94FB0D6E
S11315E054C1833631F0833779F0833509F056C01E
S11315F020C0560132E0A30EB11CF601808189831C
S113160001E010E0630112C05601F2E0AF0EB11C1C
S1131610F601C080D18096FE03C0612F70E002C045
S11316206FEF7FEFC6010E94F00D8C01F92DFF775B
S113163014C0560122E0A20EB11CF601C080D18074
S113164096FE03C0612F70E002C06FEF7FEFC6010A
S11316500E94E50D8C01F92DF0689F2EF3FD1AC050
S1131660852D90E008171907A8F4B70180E290E0EF
S11316700E94FB0D5A94F4CFF60197FC859197FED6
S113168081916F01B70190E00E94FB0D51105A94B3
S1131690015011090115110579F7F7C0843611F0CD
S11316A0893661F5560197FE09C024E0A20EB11CEB
S11316B0F60160817181828193810AC0F2E0AF0EEC
S11316C0B11CF60160817181072E000C880B990B07
S11316D0F92DFF769F2E97FF09C090958095709500
S11316E061957F4F8F4F9F4FF0689F2E2AE030E027
S11316F0A3010E94590EC82EC6183FC0092D853774
S113170021F40F7E2AE030E01DC0097F8F3691F06E
S113171018F4883559F0C3C0803719F0883711F0B0
S1131720BEC0006104FF09C0046007C094FE08C085
S1131730066006C028E030E005C020E130E002C0C9
S113174020E132E0560107FF09C084E0A80EB11C75
S1131750F601608171818281938108C0F2E0AF0E4D
S1131760B11CF6016081718180E090E0A3010E94C8
S1131770590EC82EC6180F77902E96FE0BC0092D51
S11317800E7FC11650F494FE0AC092FC08C0092DC5
S11317900E7E05C0DC2C092D03C0DC2C01C0D12E2B
S11317A004FF0DC0FE01EC0DF11D8081803311F4A6
S11317B0097E09C002FF06C0D394D39404C0802FCD
S11317C0867809F0D39403FD11C000FF06C01C2DD8
S11317D0D51480F4150D1D190DC0D51458F4B70196
S11317E080E290E00E94FB0DD394F7CFD51410F45F
S11317F05D1801C0512C04FF10C0B70180E390E0D4
S11318000E94FB0D02FF17C001FD03C088E790E0B2
S113181002C088E590E0B7010CC0802F867859F0AB
S113182001FF02C08BE201C080E207FD8DE2B70137
S113183090E00E94FB0DC11638F4B70180E390E0FC
S11318400E94FB0D1150F7CFCA94F301EC0DF11D6A
S11318508081B70190E00E94FB0DC110F5CF15C047
S1131860F4E0F51560F584E0581A93FE1FC00111E9
S113187027C02C8523FF2AC002ED10E0392D3071DA
S1131880932EF8018491811124C0552009F4E4CCED
S1131890B70180E290E00E94FB0D5A94F6CFF70165
S11318A08681978126C08FEF9FEF23C0B70180E226
S11318B090E00E94FB0D5A945110F8CFD8CF512CD0
S11318C0B701802F90E00E94FB0DD3CF06ED10E00E
S11318D0D5CF91108052B70190E00E94FB0D0F5FAD
S11318E01F4FCFCF23E0251510F483E0BDCF512C3B
S11318F0C0CF6096E2E10C94F20CAA1BBB1B51E131
S113190007C0AA1FBB1FA617B70710F0A61BB70B6B
S1131910881F991F5A95A9F780959095BC01CD0110
S1131920089597FB072E16F4009407D077FD09D08D
S11319300E947D0C07FC05D03EF4909581959F4F45
S11319400895709561957F4F0895A1E21A2EAA1B00
S1131950BB1BFD010DC0AA1FBB1FEE1FFF1FA2175B
S1131960B307E407F50720F0A21BB30BE40BF50B58
S1131970661F771F881F991F1A9469F760957095E1
S1131980809590959B01AC01BD01CF010895A29F64
S1131990B001B39FC001A39F700D811D1124911D3F
S11319A0B29F700D811D1124911D08952F923F92B5
S11319B04F925F926F927F928F929F92AF92BF925B
S11319C0CF92DF92EF92FF920F931F93CF93DF9307
S11319D0CDB7DEB7CA1BDB0B0FB6F894DEBF0FBE64
S11319E0CDBF09942A88398848885F846E847D84B1
S11319F08C849B84AA84B984C884DF80EE80FD80B3
S1131A000C811B81AA81B981CE0FD11D0FB6F89428
S1131A10DEBF0FBECDBFED010895283008F027E0EA
S1131A203327DA01990F311D87FD91600096610516
S1131A30710539F432602E5F3D9330E32A95E1F766
S1131A4008959F3F30F080387105610509F03C5FCF
S1131A503C5F3D93913008F08068911DDF93CF93F4
S1131A601F930F93FF92EF92192F987F9695E92F6A
S1131A7096959695E90FFF27EC5CFE4F992733273F
S1131A80EE24FF24A701E70105900894079428F4A5
S1131A90360FE71EF81E491F511D660F771F881F5A
S1131AA0991F0694A1F70590079428F4E70EF81EF1
S1131AB0491F561FC11D770F881F991F661F069463
S1131AC0A1F70590079428F4F80E491F561FC71F65
S1131AD0D11D880F991F661F771F0694A1F70590E3
S1131AE0079420F4490F561FC71FD81F990F661F6C
S1131AF0771F881F0694A9F784911095177041F0F9
S1131B00D695C79557954795F794E7941A95C1F7D5
S1131B10EAEDF0E0689415901591359165919591F1
S1131B2005907FE27395E118F10A430B560BC90B3C
S1131B30D009C0F7E10CF11E431F561FC91FD01D69
S1131B407EF4703311F48A95E6CFE894015030F0B6
S1131B50080F0AF40027021708F4202F2395022FF8
S1131B607A3328F079E37D932A95E9F710C07D93C1
S1131B702A9589F60694979567953795179517943E
S1131B80E118F10A430B560BC90BD00998F02395C1
S1131B907E9173957A3308F070E37C932013B8F741
S1131BA07E9170617D9330F0839571E37D9370E352
S1131BB02A95E1F71124EF90FF900F911F91CF9197
S1131BC0DF91992787FD90950895FC010590615058
S1131BD070400110D8F7809590958E0F9F1F08953F
S1131BE0FC016150704001900110D8F780959095E8
S1131BF08E0F9F1F08950F931F93CF93DF93FB01C5
S1131C00238121FD03C08FEF9FEF2CC022FF16C05C
S1131C1046815781248135814217530744F4A081BA
S1131C20B1819D012F5F3F4F318320838C932681A7
S1131C3037812F5F3F4F3783268314C08B01EC011C
S1131C40FB010084F185E02D0995892BE1F6D8018B
S1131C5016968D919C911797019617969C938E9347
S1131C601697CE01DF91CF911F910F910895AEE0A9
S1131C70B0E0EDE3FEE00C94E40C0D891E8986E0EF
S1131C808C831A8309838FEF9FE79E838D83AE0134
S1131C90475E5F4F6F89788DCE0101960E940009DF
S1131CA0EF81F885E00FF11F10822E96E4E00C948A
S1131CB0000DFA01AA27283051F1203181F1E8946E
S1131CC06F936E7F6E5F7F4F8F4F9F4FAF4FB1E02B
S1131CD03ED0B4E03CD0670F781F891F9A1FA11D26
S1131CE0680F791F8A1F911DA11D6A0F711D811D27
S1131CF0911DA11D20D009F468943F912AE0269FEC
S1131D0011243019305D3193DEF6CF010895462F4A
S1131D104770405D4193B3E00FD0C9F7F6CF462F2B
S1131D204F70405D4A3318F0495D31FD4052419394
S1131D3002D0A9F7EACFB4E0A69597958795779551
S1131D406795BA95C9F700976105710508959B01D8
S1131D50AC010A2E06945795479537952795BA9561
S1131D60C9F7620F731F841F951FA01D0895F8946F
S1051D70FFCF9F
S1131D721106050329018F041303B5043006110368
S1131D820F030901B0049504B503CB03DA03270456
S1131D92440425633D253034670A0025633D25301C
S1131DA235670A0025633D253034750A000D0A00A3
S9030000FC
