:100000000C9443000C947E020C94A3020C946000A8
:100010000C9460000C9460000C9460000C946000E0
:100020000C9460000C9460000C9460000C946000D0
:100030000C9460000C94BB030C9495030C9460002A
:100040000C9460000C9460000C9460000C946000B0
:100050000C9460000C9460000C9460000C946000A0
:100060000C9460000C94600005A84CCDB2D44EB93D
:100070003836A9020C50B9918688083CA6AAAA2A4B
:10008000BE000000803F11241FBECFEFD8E0DEBFCE
:10009000CDBF11E0A0E0B1E0EEE7F3E102C00590D2
:1000A0000D92A232B107D9F721E0A2E2B1E001C07E
:1000B0001D92AE34B207E1F70E94FF030C94BD0914
:1000C0000C940000F894ECE7F0E09081907F90832E
:1000D0009081892B8083EAE7F0E0808180648083CF
:1000E000808186FDFDCF8091780090917900789491
:1000F000A0E0B0E0880F991FAA1FBB1F880F991FAF
:10010000AA1FBB1F0895ECE7F0E080818064808324
:1001100080818F7780838081807F8083EAE7F0E031
:100120008081876C8083089590933E0180933D0188
:10013000109240011092220110923F010895E09127
:100140003D01F0913E010190F081E02D80E895E2C3
:100150000995E0913D01F0913E010280F381E02D8F
:100160000995E0913D01F0913E010480F581E02D7B
:100170000995E0913D01F0913E0122893389A3E286
:10018000B1E01A966D917C911B970680F781E02D66
:1001900042E318968D919C911997099581E080937F
:1001A00040010895EF92FF920F931F93CF93DF9337
:1001B000E0913D01F0913E010684F785E02D09951F
:1001C000C0E0D0E003E211E0F801E080F180EC0E45
:1001D000FD1EE0913D01F0913E010088F189E02D86
:1001E00085E00995F70191838083F801E480F5802B
:1001F000EC0EFD1EE0913D01F0913E010288F38975
:10020000E02D0995F70191838083F801E280F38066
:10021000EC0EFD1EE0913D01F0913E010088F18958
:10022000E02D85E00995F70191838083F801E68050
:10023000F780EC0EFD1EE0913D01F0913E01028839
:10024000F389E02D0995F701918380832296C436C6
:10025000D10509F0B9CFE0913D01F0913E01048450
:10026000F585E02D099582E080934001DF91CF91E3
:100270001F910F91FF90EF900895CF93DF93C3E20A
:10028000D1E062E370E0888199810E9401039E873A
:100290008D8762E370E08A819B810E940103988BC5
:1002A0008F878D859E850E9416039A8B898B8F85FB
:1002B00098890E9416039C8B8B8B20913F0130E024
:1002C0004A855B856091220170E0888599850E944E
:1002D00025039E8B8D8B0E9468038F8B482F880F80
:1002E000550B6B897C8989899A890E948503998F2E
:1002F000888F1092220110923F01E0913D01F09110
:100300003E01228933896A857B850680F781E02D4D
:1003100042E388859985099583E080934001DF91C8
:10032000CF9108950F931F93CF93DF93CDB7DEB78F
:1003300060970FB6F894DEBF0FBECDBF03E211E0A9
:10034000E0913D01F0913E010084F185E02D40E512
:10035000BE016F5F7F4FD80158968D919C91599740
:100360000995E0913D01F0913E010284F385E02D75
:10037000CE0101960995F8018789E0913D01F09140
:100380003E010084F185E02D46E4BE016F5F7F4FA2
:10039000082E000C990B0995E0913D01F0913E016A
:1003A0000284F385E02DCE0101960995E0913D018F
:1003B000F0913E010084F185E02D46E5BE016F5FBE
:1003C0007F4FD80151968D919C9152970995E0915C
:1003D0003D01F0913E010284F385E02DCE010196AE
:1003E0000995E0913D01F0913E010084F185E02DF9
:1003F00049E4BE016F5F7F4FD80153968D919C9168
:1004000054970995E0913D01F0913E010284F385F6
:10041000E02DCE010196099581E080934001609620
:100420000FB6F894DEBF0FBECDBFDF91CF911F9105
:100430000F91089580914001813049F028F0823079
:1004400049F0833051F00CC00E949F00F3CF0E940E
:10045000D200F0CF0E943D01EDCF0E949201EACF81
:1004600081E090E0089578940895F8940895E1E487
:10047000F1E0918380837383628344833087278391
:10048000168215820895CF93DF93882319F0813067
:10049000D1F031C0E1E4F1E096818481981759F1FF
:1004A00022813381868191E0980F9683C82FD0E016
:1004B000CC0FDD1FC20FD31F0780F085E02D0995FB
:1004C0009983888318C0E1E4F1E0958184819817CD
:1004D00091F020813181858191E0980F9583C82F1B
:1004E000D0E0CC0FDD1FC20FD31F0780F085E02DB9
:1004F000099599838883DF91CF9108951F920F9278
:100500000FB60F9211242F933F934F935F936F93E6
:100510007F938F939F93AF93BF93EF93FF9380E06D
:100520000E944302FF91EF91BF91AF919F918F91F4
:100530007F916F915F914F913F912F910F900FBEDF
:100540000F901F9018951F920F920FB60F921124C3
:100550002F933F934F935F936F937F938F939F93CB
:10056000AF93BF93EF93FF9381E00E944302FF910B
:10057000EF91BF91AF919F918F917F916F915F911B
:100580004F913F912F910F900FBE0F901F90189594
:100590001F93CF93DF93FC01562F172FEC01D695B5
:1005A000C795D695C7959E01ABE7B4E10E94C406F6
:1005B0009695879564E6689F9001699F300D112498
:1005C000E21BF30BFF93EF939E010E94C4069695E6
:1005D00087959F938F931F924F9384E191E09F9310
:1005E0008F931F935F930E94D3068DB79EB70A9691
:1005F0000FB6F8949EBF0FBE8DBFDF91CF911F91B4
:100600000895662379F0E82FF92F90E040E050E05C
:10061000219131914217530708F4A9019F5F691393
:10062000F7CF02C040E050E0CA010895BC0180E06D
:1006300090E00E942D052EEE34E045EB5FE30E9432
:100640008C040E94FE04CB0108956330D8F123305E
:10065000E0F1DC016D917C91DA012D913C911197D3
:100660002617370778F414964D915C911597F90188
:10067000E41BF50BDC0114966D917C911597641BBE
:10068000750B13C06217730770F4FC0184819581A8
:10069000FB01E81BF90BDA0114966D917C9115971B
:1006A000681B790B02C060E070E0CF010E94B006C9
:1006B00028E631E0629FC001639F900D729F900D0C
:1006C0001124089580E090E0089580E090E008957E
:1006D000BC0180E090E00E942D052EE23AEF4EE84A
:1006E0005CE30E94FA050E94FE0480E090E00E9414
:1006F0002D050E94870420E030E048EC52E40E947F
:10070000FA050E94FE04CB010895649F9001659F45
:10071000300D749F300D1124AC01249FC001259F22
:10072000900D349F900D112408951F920F920FB6D3
:100730000F9211248F939F9380914A0190914B01C6
:10074000019690934B0180934A0180914A019091C8
:100750004B018436910541F495B180E2892785B932
:1007600010924B0110924A019F918F910F900FBEF2
:100770000F901F9018951F920F920FB60F92112491
:100780008F939F9380914C0190914D01019690938E
:100790004D0180934C019F918F910F900FBE0F9050
:1007A0001F9018959C01E1ECF0E090819861908396
:1007B000E2ECF0E090819660908390819F7E908340
:1007C00090819F7D90833093C5002093C40008954D
:1007D000E0ECF0E0908195FFFDCF8093C600089596
:1007E000CF93DF93EC018881882331F021960E941A
:1007F000E80389918111FBCFDF91CF910895CF93C9
:10080000DF93CDB7DEB764970FB6F894DEBF0FBEA7
:10081000CDBF84E1E0E0F1E0DE01119601900D92A0
:100820008A95E1F7CE0101960E9494000E941A0277
:1008300064960FB6F894DEBF0FBECDBFDF91CF91A7
:1008400008950E94730538F00E947A0520F039F46B
:100850009F3F19F426F40C9470050EF4E095E7FB25
:100860000C946A05E92F0E94D10558F3BA17620764
:1008700073078407950720F079F4A6F50C94F30527
:100880000EF4E0950B2EBA2FA02D0B01B9019001AB
:100890000C01CA01A0011124FF27591B99F0593FEF
:1008A00050F4503E68F11A16F040A22F232F342F37
:1008B0004427585FF3CF469537952795A795F04085
:1008C0005395C9F77EF41F16BA0B620B730B840B9A
:1008D000BAF09150A1F0FF0FBB1F661F771F881F52
:1008E000C2F70EC0BA0F621F731F841F48F48795AA
:1008F00077956795B795F7959E3F08F0B0CF93959C
:10090000880F08F09927EE0F9795879508950E9414
:100910008305E3950C94BD050E94A0040C94AC05DE
:100920000E947A0558F00E94730540F029F45F3F59
:1009300029F00C946A0551110C94F4050C9470057F
:100940000E94D10568F39923B1F3552391F3951BC8
:10095000550BBB27AA2762177307840738F09F5FE0
:100960005F4F220F331F441FAA1FA9F335D00E2E4D
:100970003AF0E0E832D091505040E695001CCAF7BA
:100980002BD0FE2F29D0660F771F881FBB1F26177D
:1009900037074807AB07B0E809F0BB0B802DBF0154
:1009A000FF2793585F4F3AF09E3F510578F00C9423
:1009B0006A050C94F4055F3FE4F3983ED4F3869502
:1009C00077956795B795F7959F5FC9F7880F911D44
:1009D0009695879597F90895E1E0660F771F881F30
:1009E000BB1F621773078407BA0720F0621B730BE3
:1009F000840BBA0BEE1F88F7E09508950E94D90585
:100A000088F09F5798F0B92F9927B751B0F0E1F0CF
:100A1000660F771F881F991F1AF0BA95C9F714C07F
:100A2000B13091F00E94F305B1E008950C94F30504
:100A3000672F782F8827B85F39F0B93FCCF38695B8
:100A400077956795B395D9F73EF490958095709515
:100A500061957F4F8F4F9F4F0895E89409C097FB92
:100A60003EF490958095709561957F4F8F4F9F4F85
:100A70009923A9F0F92F96E9BB279395F6958795C9
:100A800077956795B795F111F8CFFAF4BB0F11F48C
:100A900060FF1BC06F5F7F4F8F4F9F4F16C0882333
:100AA00011F096E911C0772321F09EE8872F762F69
:100AB00005C0662371F096E8862F70E060E02AF0AA
:100AC0009A95660F771F881FDAF7880F9695879596
:100AD00097F9089597F99F6780E870E060E00895BE
:100AE0009FEF80EC089500240A9416161706180646
:100AF0000906089500240A94121613061406050622
:100B000008950C9470050E94D905D8F3E894E0E0AC
:100B1000BB279F57F0F02AED3FE049EC06C0EE0FEF
:100B2000BB0F661F771F881F28F0B23A6207730752
:100B3000840728F0B25A620B730B840BE3959A95E5
:100B400072F7803830F49A95BB0F661F771F881FA5
:100B5000D2F790480C946906092E0394000C11F406
:100B6000882352F0BB0F40F4BF2B11F460FF04C088
:100B70006F5F7F4F8F4F9F4F0895EF93E0FF07C048
:100B8000A2EA2AED3FE049EC5FEB0E9432040E94AA
:100B9000AC050F90039401FC9058E8E6F0E00C944B
:100BA0009C0657FD9058440F551F59F05F3F71F058
:100BB0004795880F97FB991F61F09F3F79F08795C4
:100BC0000895121613061406551FF2CF4695F1DF4D
:100BD00008C0161617061806991FF1CF86957105DD
:100BE000610508940895E894BB2766277727CB0111
:100BF00097F908950E940D060C94AC050E947305A8
:100C000038F00E947A0520F0952311F00C946A05C3
:100C10000C94700511240C94F4050E94D10570F316
:100C2000959FC1F3950F50E0551F629FF001729F91
:100C3000BB27F00DB11D639FAA27F00DB11DAA1FA0
:100C4000649F6627B00DA11D661F829F2227B00DED
:100C5000A11D621F739FB00DA11D621F839FA00D78
:100C6000611D221F749F3327A00D611D231F849FC8
:100C7000600D211D822F762F6A2F11249F5750401F
:100C80009AF0F1F088234AF0EE0FFF1FBB1F661F9A
:100C9000771F881F91505040A9F79E3F510580F063
:100CA0000C946A050C94F4055F3FE4F3983ED4F38A
:100CB000869577956795B795F795E7959F5FC1F707
:100CC000FE2B880F911D9695879597F908959F3F64
:100CD00031F0915020F4879577956795B795880FF7
:100CE000911D9695879597F90895DF93CF931F935C
:100CF0000F93FF92EF92DF927B018C01689406C004
:100D0000DA2EEF010E940D06FE01E894A5912591CF
:100D1000359145915591A6F3EF010E943204FE01F1
:100D20009701A801DA9469F7DF90EF90FF900F9197
:100D30001F91CF91DF9108959F938F937F936F932E
:100D4000FF93EF939B01AC010E94FA05EF91FF9195
:100D50000E9475062F913F914F915F910C94FA0577
:100D6000AA1BBB1B51E107C0AA1FBB1FA617B707D1
:100D700010F0A61BB70B881F991F5A95A9F78095ED
:100D80009095BC01CD010895A29FB001B39FC00111
:100D9000A39F700D811D1124911DB29F700D811DA7
:100DA0001124911D0895AEE0B0E0E9EDF6E00C9459
:100DB00094090D891E8986E08C831A8309838FEF3D
:100DC0009FE79E838D83AE01475E5F4F6F89788D6D
:100DD000CE0101960E94F506EF81F885E00FF11F24
:100DE00010822E96E4E00C94B009ABE0B0E0EBEF9B
:100DF000F6E00C9486096C017B018A01FC011782E4
:100E00001682838181FFCCC1CE0101963C01F6019F
:100E10009381F70193FD859193FF81917F01882351
:100E200009F4BAC1853239F493FD859193FF81911C
:100E30007F01853229F4B60190E00E94EC08E7CFEB
:100E4000912C212C312CFFE1F315D8F08B3279F065
:100E500038F4803279F08332A1F4232D20611DC053
:100E60008D3261F0803369F4232D216016C0832D0B
:100E70008260382EE32DE4603E2E2AC0F32DF86008
:100E80001DC037FC2DC020ED280F2A3040F08E32D7
:100E9000B9F436FC81C1232D2064322E19C036FEF0
:100EA00006C08AE0989E200D1124922E11C0EAE01F
:100EB0002E9E200D1124222EF32DF0623F2E08C00D
:100EC0008C3621F4832D8068382E02C0883641F498
:100ED000F70193FD859193FF81917F018111B3CF3C
:100EE000982F9F7D9554933028F40C5F1F4F9FE3FC
:100EF00099830DC0833631F0833771F0833509F063
:100F000059C021C0F801808189830E5F1F4F88245A
:100F10008394912C530113C02801F2E04F0E511C11
:100F2000F801A080B18036FE03C0692D70E002C0D8
:100F30006FEF7FEFC5010E94E1084C018201F32DA4
:100F4000FF773F2E16C0280122E0420E511CF80107
:100F5000A080B18036FE03C0692D70E002C06FEF43
:100F60007FEFC5010E94D6084C01F32DF0683F2E9B
:100F7000820133FC1BC0822D90E088169906B0F4E4
:100F8000B60180E290E00E94EC082A94F4CFF501CB
:100F900037FC859137FE81915F01B60190E00E9498
:100FA000EC0821102A9421E0821A910881149104FE
:100FB00071F7E8C0843611F0893641F5F80137FE43
:100FC00007C060817181828193810C5F1F4F08C0CF
:100FD00060817181072E000C880B990B0E5F1F4FEB
:100FE000F32DFF763F2E97FF09C090958095709561
:100FF00061957F4F8F4F9F4FF0683F2E2AE030E082
:10100000A3010E942809882E861845C0853731F42F
:10101000232D2F7EB22E2AE030E025C0932D997F1C
:10102000B92E8F36C1F018F4883579F0B5C0803705
:1010300019F0883721F0B0C0E92FE061BE2EB4FE70
:101040000DC0FB2DF460BF2E09C034FE0AC0292F4D
:101050002660B22E06C028E030E005C020E130E076
:1010600002C020E132E0F801B7FE07C06081718163
:10107000828193810C5F1F4F06C06081718180E087
:1010800090E00E5F1F4FA3010E942809882E86184A
:10109000FB2DFF773F2E36FE0DC0232D2E7FA22E77
:1010A000891458F434FE0BC032FC09C0832D8E7EA7
:1010B000A82E05C0B82CA32C03C0B82C01C0B92C95
:1010C000A4FE0FC0FE01E80DF11D8081803321F4E4
:1010D0009A2D997EA92E09C0A2FE06C0B394B3949E
:1010E00004C08A2D867809F0B394A3FC11C0A0FE39
:1010F00006C0B21488F4280C922C9B180EC0B214AF
:1011000060F4B60180E290E00E94EC08B394F7CF5F
:10111000B21418F42B1802C0982C212CA4FE10C075
:10112000B60180E390E00E94EC08A2FE17C0A1FC8B
:1011300003C088E790E002C088E590E0B6010CC0EB
:101140008A2D867859F0A1FE02C08BE201C080E2B0
:10115000A7FC8DE2B60190E00E94EC08891438F4F7
:10116000B60180E390E00E94EC089A94F7CF8A944D
:10117000F301E80DF11D8081B60190E00E94EC08BA
:101180008110F5CF222009F442CEB60180E290E032
:101190000E94EC082A94F6CFF6018681978102C05E
:1011A0008FEF9FEF2B96E2E10C94A209FC010590D2
:1011B000615070400110D8F7809590958E0F9F1F59
:1011C0000895FC016150704001900110D8F780959E
:1011D00090958E0F9F1F08950F931F93CF93DF93CA
:1011E000FB01238121FD03C08FEF9FEF2CC022FF65
:1011F00016C046815781248135814217530744F434
:10120000A081B1819D012F5F3F4F318320838C935B
:10121000268137812F5F3F4F3783268314C08B0190
:10122000EC01FB010084F185E02D0995892BE1F6A5
:10123000D80116968D919C911797019617969C93BD
:101240008E931697CE01DF91CF911F910F91089544
:10125000FA01AA27283051F1203181F1E8946F93E7
:101260006E7F6E5F7F4F8F4F9F4FAF4FB1E03ED08D
:10127000B4E03CD0670F781F891F9A1FA11D680F2B
:10128000791F8A1F911DA11D6A0F711D811D911D5E
:10129000A11D20D009F468943F912AE0269F1124D3
:1012A0003019305D3193DEF6CF010895462F477037
:1012B000405D4193B3E00FD0C9F7F6CF462F4F7092
:1012C000405D4A3318F0495D31FD4052419302D0F0
:1012D000A9F7EACFB4E0A695979587957795679596
:1012E000BA95C9F700976105710508959B01AC0196
:1012F0000A2E06945795479537952795BA95C9F7BD
:10130000620F731F841F951FA01D08952F923F9297
:101310004F925F926F927F928F929F92AF92BF9205
:10132000CF92DF92EF92FF920F931F93CF93DF93B1
:10133000CDB7DEB7CA1BDB0B0FB6F894DEBF0FBE0E
:10134000CDBF09942A88398848885F846E847D845B
:101350008C849B84AA84B984C884DF80EE80FD805D
:101360000C811B81AA81B981CE0FD11D0FB6F894D3
:0E137000DEBF0FBECDBFED010895F894FFCF94
:10137E00D203000083003702C802F00335023302A5
:10138E006200000025633D253032642E2530326424
:02139E000A0043
:00000001FF
