:100000000C945A000C9477000C9477000C947700B1
:100010000C9477000C9477000C9477000C94770084
:100020000C9477000C9477000C9477000C94770074
:100030000C9477000C9477000C9479000C94770062
:100040000C9477000C9477000C9477000C94770054
:100050000C9477000C9477000C9477000C94770044
:100060000C9477000C9477000C9477000C94770034
:100070000C9477000C9477000C9477000C94770024
:100080000C9477000C9477000C9477000C94770014
:100090000C9477000C9477000C9477000C94770004
:1000A0000C9477000C9477000C9477000C947700F4
:1000B0000C94770011241FBECFEFD8E0DEBFCDBF78
:1000C00011E0A0E0B1E0ECE5F1E002C005900D9296
:1000D000A030B107D9F721E0A0E0B1E001C01D9246
:1000E000A130B207E1F70E94A6000C94AC000C947A
:1000F00000001F920F920FB60F9211248F939F93BF
:10010000809100018F5F809300018091000184360F
:1001100031F495B180E2892785B9109200019F9151
:100120008F910F900FBE0F901F90189584B582602D
:1001300084BD85B5856085BD8CE987BD10920001C1
:10014000EEE6F0E080818260808308958FEF84B9CD
:0C0150000E9496007894FFCFF894FFCF37
:00000001FF
