S00D000045453230392E73726563F2
S11300000C9443000C94C0020C94E5020C94600020
S11300100C9460000C9460000C9460000C946000DC
S11300200C9460000C9460000C9460000C946000CC
S11300300C9460000C94D7030C9460000C94600042
S11300400C9460000C9460000C9460000C946000AC
S11300500C9460000C9460000C9460000C9460009C
S11300600C9460000C94600005A84CCDB2D44EB939
S11300703836A9020C50B9918688083CA6AAAA2A47
S1130080BE000000803F11241FBECFEFD8E0DEBFCA
S1130090CDBF11E0A0E0B1E0E6EFF4E102C00590CD
S11300A00D92A033B107D9F721E0A0E3B1E001C07C
S11300B01D92AA35B207E1F70E9492040C94790AC2
S11300C00C940000F894ECE7F0E09081907F90832A
S11300D09081892B8083EAE7F0E0808180648083CB
S11300E0808186FDFDCF809178009091790078948D
S11300F0A0E0B0E0880F991FAA1FBB1F880F991FAB
S1130100AA1FBB1F0895ECE7F0E080818064808320
S113011080818F7780838081807F8083EAE7F0E02D
S11301208081876C8083089590934C0180934B0168
S113013010924E011092300110924D010895E091F9
S11301404B01F0914C010190F081E02D80E895E2A3
S11301500995E0914B01F0914C010280F381E02D6F
S11301600995E0914B01F0914C010480F581E02D5B
S11301700995E0914B01F0914C010680F781E02D47
S11301800995E0914B01F0914C0124893589A1E353
S1130190B1E01A966D917C911B970084F185E02D56
S11301A042E318968D919C911997099581E080936B
S11301B04E010895EF92FF920F931F93CF93DF9315
S11301C0E0914B01F0914C010688F789E02D0995E7
S11301D0E0914B01F0914C010680F781E02D0995E7
S11301E0E0914B01F0914C010088F189E02D0995D3
S11301F0C0E0D0E001E311E0F801E080F180EC0E12
S1130200FD1EE0914B01F0914C010288F389E02D31
S113021085E00995F70191838083F801E480F580F6
S1130220EC0EFD1EE0914B01F0914C010488F58920
S1130230E02D0995F70191838083F801E280F38032
S1130240EC0EFD1EE0914B01F0914C010288F38904
S1130250E02D85E00995F70191838083F801E6801C
S1130260F780EC0EFD1EE0914B01F0914C010488E7
S1130270F589E02D0995F701918380832296C43690
S1130280D10509F0B9CFE0914B01F0914C010684FE
S1130290F785E02D099582E080934E01DF91CF919F
S11302A01F910F91FF90EF900895CF93DF93C1E3D7
S11302B0D1E0E0914B01F0914C01008CF18DE02DE7
S11302C062E38881998109959E878D87E0914B012E
S11302D0F0914C01008CF18DE02D62E38A819B81C9
S11302E00995988B8F87E0914B01F0914C01028C1A
S11302F0F38DE02D8D859E8509959A8B898BE091F0
S11303004B01F0914C01028CF38DE02D8F8598897F
S113031009959C8B8B8B4A855B85E0914B01F09111
S11303204C01048CF58DE02D20914D01609130013C
S11303308885998509959E8B8D8BE0914B01F09171
S11303404C01068CF78DE02D09958F8B482F880F73
S1130350550B6B897C89E0914B01F0914C0100A015
S1130360F1A1E02D89899A890995998F888F109236
S1130370300110924D01E0914B01F0914C01248920
S113038035896A857B850084F185E02D42E3888583
S11303909985099583E080934E01DF91CF9108956B
S11303A00F931F93CF93DF93CDB7DEB760970FB64C
S11303B0F894DEBF0FBECDBF01E311E0E0914B0125
S11303C0F0914C010284F385E02D40E5BE016F5F9E
S11303D07F4FD80158968D919C9159970995E0913A
S11303E04B01F0914C010484F585E02DCE0101967A
S11303F00995F8018789E0914B01F0914C01028441
S1130400F385E02D46E4BE016F5F7F4F082E000C9C
S1130410990B0995E0914B01F0914C010484F58509
S1130420E02DCE0101960995E0914B01F0914C012C
S11304300284F385E02D46E5BE016F5F7F4FD8014E
S113044051968D919C9152970995E0914B01F091B1
S11304504C010484F585E02DCE0101960995E091C7
S11304604B01F0914C010284F385E02D49E4BE0177
S11304706F5F7F4FD80153968D919C915497099546
S1130480E0914B01F0914C010484F585E02DCE01FF
S11304900196099581E080934E0160960FB6F89419
S11304A0DEBF0FBECDBFDF91CF911F910F91089595
S11304B080914E01813049F028F0823049F0833038
S11304C051F00CC00E949F00F3CF0E94DA00F0CFDD
S11304D00E945501EDCF0E94D001EACF81E090E067
S11304E0089517B883E08AB9089578940895F89424
S11304F00895EFE4F1E091838083738362834483FE
S113050030872783168215820895CF93DF9388233B
S113051019F08130D1F031C0EFE4F1E096818481AB
S1130520981759F122813381868191E0980F96833F
S1130530C82FD0E0CC0FDD1FC20FD31F0780F0857A
S1130540E02D09959983888318C0EFE4F1E0958143
S11305508481981791F020813181858191E0980FF1
S11305609583C82FD0E0CC0FDD1FC20FD31F0780A7
S1130570F085E02D099599838883DF91CF910895C3
S11305801F920F920FB60F9211242F933F934F9304
S11305905F936F937F938F939F93AF93BF93EF93E7
S11305A0FF9380E00E948502FF91EF91BF91AF918C
S11305B09F918F917F916F915F914F913F912F9177
S11305C00F900FBE0F901F9018951F920F920FB6A9
S11305D00F9211242F933F934F935F936F937F93C5
S11305E08F939F93AF93BF93EF93FF9381E00E9408
S11305F08502FF91EF91BF91AF919F918F917F9170
S11306006F915F914F913F912F910F900FBE0F907B
S11306101F9018951F93CF93DF93FC01562F172F2C
S1130620EC01D695C795D695C7959E01ABE7B4E185
S11306300E9480079695879564E6689F9001699F5C
S1130640300D1124E21BF30BFF93EF939E010E94E4
S11306508007969587959F938F931F924F9382E27D
S113066091E09F938F931F935F930E948F078DB7A1
S11306709EB70A960FB6F8949EBF0FBE8DBFDF914A
S1130680CF911F910895662379F0E82FF92F90E018
S113069040E050E0219131914217530708F4A90139
S11306A09F5F6913F7CF02C040E050E0CA0108958C
S11306B0BC0180E090E00E94C7052EEE34E045EBDB
S11306C05FE30E9426050E949805CB0108956330DC
S11306D0D8F12330E0F1DC016D917C91DA012D91A8
S11306E03C9111972617370778F414964D915C9135
S11306F01597F901E41BF50BDC0114966D917C91BF
S11307001597641B750B13C06217730770F4FC0113
S113071084819581FB01E81BF90BDA0114966D9134
S11307207C911597681B790B02C060E070E0CF01E3
S11307300E944A0728E631E0629FC001639F900D42
S1130740729F900D1124089580E090E0089580E058
S113075090E00895BC0180E090E00E94C7052EE27D
S11307603AEF4EE85CE30E9494060E94980580E00C
S113077090E00E94C7050E94210520E030E048EC8B
S113078052E40E9494060E949805CB010895649F48
S11307909001659F300D749F300D1124AC01249F8E
S11307A0C001259F900D349F900D112408951F9230
S11307B00F920FB60F9211248F939F93809158013B
S11307C090915901019690935901809358019F91FA
S11307D08F910F900FBE0F901F901895E1E8F0E0F5
S11307E0808184608083EFE6F0E080818160808393
S11307F07894089510928500109284001092590103
S11308001092580108958F929F92AF92BF92CF9207
S1130810DF92EF92FF920F931F93CF93DF93BC016C
S113082080E090E020E034E244EF50E00E945E0774
S1130830CA01B9010E94C7056B017C01C091840003
S1130840D0918500009158011091590120E030E0C9
S113085040E857E40E9494064B015C01B80180E033
S113086090E00E94C7059B01AC01C501B4010E9440
S1130870940620E030E048EC52E40E9494064B01D8
S11308805C01BE0180E090E00E94C705A7019601CB
S11308900E9494069B01AC01C501B4010E94B504F9
S11308A00E949805CB01DF91CF911F910F91FF908A
S11308B0EF90DF90CF90BF90AF909F908F9008956E
S11308C080E091E00E94030408959C01E1ECF0E0D3
S11308D0908198619083E2ECF0E09081966090833F
S11308E090819F7E908390819F7D90833093C500FB
S11308F02093C4000895E0ECF0E0908195FFFDCFD3
S11309008093C6000895CF93DF93EC0188818823F8
S113091031F021960E947B0489918111FBCFDF91F4
S1130920CF910895CF93DF93CDB7DEB7A2970FB6DB
S1130930F894DEBF0FBECDBF82E2E0E0F1E0DE015D
S1130940119601900D928A95E1F7CE0101960E94CD
S113095094000E945802A2960FB6F894DEBF0FBE10
S1130960CDBFDF91CF9108955058BB27AA270E948D
S1130970CC040C9446060E940D0638F00E9414061E
S113098020F039F49F3F19F426F40C940A060EF46F
S1130990E095E7FB0C940406E92F0E946B0658F3DC
S11309A0BA17620773078407950720F079F4A6F550
S11309B00C948D060EF4E0950B2EBA2FA02D0B018E
S11309C0B90190010C01CA01A0011124FF27591B90
S11309D099F0593F50F4503E68F11A16F040A22F96
S11309E0232F342F4427585FF3CF46953795279507
S11309F0A795F0405395C9F77EF41F16BA0B620B06
S1130A00730B840BBAF09150A1F0FF0FBB1F661F4C
S1130A10771F881FC2F70EC0BA0F621F731F841F8F
S1130A2048F4879577956795B795F7959E3F08F0B5
S1130A30B0CF9395880F08F09927EE0F9795879577
S1130A4008950E941D06E3950C9457060E943A05EA
S1130A500C9446060E94140658F00E940D0640F0BD
S1130A6029F45F3F29F00C94040651110C948E066E
S1130A700C940A060E946B0668F39923B1F355237C
S1130A8091F3951B550BBB27AA276217730784079D
S1130A9038F09F5F5F4F220F331F441FAA1FA9F333
S1130AA035D00E2E3AF0E0E832D091505040E69521
S1130AB0001CCAF72BD0FE2F29D0660F771F881F82
S1130AC0BB1F261737074807AB07B0E809F0BB0B75
S1130AD0802DBF01FF2793585F4F3AF09E3F510589
S1130AE078F00C9404060C948E065F3FE4F3983E71
S1130AF0D4F3869577956795B795F7959F5FC9F772
S1130B00880F911D9695879597F90895E1E0660FF2
S1130B10771F881FBB1F621773078407BA0720F06B
S1130B20621B730B840BBA0BEE1F88F7E0950895D4
S1130B300E94730688F09F5798F0B92F9927B751F0
S1130B40B0F0E1F0660F771F881F991F1AF0BA956D
S1130B50C9F714C0B13091F00E948D06B1E0089538
S1130B600C948D06672F782F8827B85F39F0B93F2A
S1130B70CCF3869577956795B395D9F73EF4909520
S1130B808095709561957F4F8F4F9F4F0895E8949E
S1130B9009C097FB3EF490958095709561957F4FC1
S1130BA08F4F9F4F9923A9F0F92F96E9BB2793956F
S1130BB0F695879577956795B795F111F8CFFAF47F
S1130BC0BB0F11F460FF1BC06F5F7F4F8F4F9F4FB0
S1130BD016C0882311F096E911C0772321F09EE80E
S1130BE0872F762F05C0662371F096E8862F70E074
S1130BF060E02AF09A95660F771F881FDAF7880F4E
S1130C009695879597F9089597F99F6780E870E01E
S1130C1060E008959FEF80EC089500240A9416166E
S1130C20170618060906089500240A9412161306D6
S1130C301406050608950C940A060E947306D8F358
S1130C40E894E0E0BB279F57F0F02AED3FE049EC41
S1130C5006C0EE0FBB0F661F771F881F28F0B23A3D
S1130C6062077307840728F0B25A620B730B840B74
S1130C70E3959A9572F7803830F49A95BB0F661F06
S1130C80771F881FD2F790480C940307092E03940A
S1130C90000C11F4882352F0BB0F40F4BF2B11F465
S1130CA060FF04C06F5F7F4F8F4F9F4F0895EF9396
S1130CB0E0FF07C0A2EA2AED3FE049EC5FEB0E94A7
S1130CC0CC040E9446060F90039401FC9058E8E679
S1130CD0F0E00C94360757FD9058440F551F59F017
S1130CE05F3F71F04795880F97FB991F61F09F3F15
S1130CF079F087950895121613061406551FF2CF3E
S1130D004695F1DF08C0161617061806991FF1CF8D
S1130D1086957105610508940895E894BB276627B4
S1130D207727CB0197F908950E94A7060C944606ED
S1130D300E940D0638F00E94140620F0952311F04D
S1130D400C9404060C940A0611240C948E060E943A
S1130D506B0670F3959FC1F3950F50E0551F629F8A
S1130D60F001729FBB27F00DB11D639FAA27F00D00
S1130D70B11DAA1F649F6627B00DA11D661F829F27
S1130D802227B00DA11D621F739FB00DA11D621F0C
S1130D90839FA00D611D221F749F3327A00D611D29
S1130DA0231F849F600D211D822F762F6A2F11240B
S1130DB09F5750409AF0F1F088234AF0EE0FFF1F3E
S1130DC0BB1F661F771F881F91505040A9F79E3F95
S1130DD0510580F00C9404060C948E065F3FE4F3F6
S1130DE0983ED4F3869577956795B795F795E795EB
S1130DF09F5FC1F7FE2B880F911D9695879597F9F4
S1130E0008959F3F31F0915020F487957795679529
S1130E10B795880F911D9695879597F90895DF9357
S1130E20CF931F930F93FF92EF92DF927B018C017C
S1130E30689406C0DA2EEF010E94A706FE01E8942A
S1130E40A5912591359145915591A6F3EF010E9405
S1130E50CC04FE019701A801DA9469F7DF90EF90C2
S1130E60FF900F911F91CF91DF9108959F938F93DE
S1130E707F936F93FF93EF939B01AC010E949406C1
S1130E80EF91FF910E940F072F913F914F915F9136
S1130E900C949406AA1BBB1B51E107C0AA1FBB1FDD
S1130EA0A617B70710F0A61BB70B881F991F5A95F2
S1130EB0A9F780959095BC01CD010895A1E21A2E61
S1130EC0AA1BBB1BFD010DC0AA1FBB1FEE1FFF1FEA
S1130ED0A217B307E407F50720F0A21BB30BE40B3A
S1130EE0F50B661F771F881F991F1A9469F7609581
S1130EF07095809590959B01AC01BD01CF0108953B
S1130F00A29FB001B39FC001A39F700D811D112446
S1130F10911DB29F700D811D1124911D0895AEE0A5
S1130F20B0E0E5E9F7E00C94500A0D891E8986E0EB
S1130F308C831A8309838FEF9FE79E838D83AE0191
S1130F40475E5F4F6F89788DCE0101960E94B1078D
S1130F50EF81F885E00FF11F10822E96E4E00C94E7
S1130F606C0AABE0B0E0E7EBF7E00C94420A6C01EA
S1130F707B018A01FC0117821682838181FFCCC127
S1130F80CE0101963C01F6019381F70193FD859111
S1130F9093FF81917F01882309F4BAC1853239F422
S1130FA093FD859193FF81917F01853229F4B601E8
S1130FB090E00E94A809E7CF912C212C312CFFE16D
S1130FC0F315D8F08B3279F038F4803279F083322B
S1130FD0A1F4232D20611DC08D3261F0803369F4AA
S1130FE0232D216016C0832D8260382EE32DE4600A
S1130FF03E2E2AC0F32DF8601DC037FC2DC020ED15
S1131000280F2A3040F08E32B9F436FC81C1232DEA
S11310102064322E19C036FE06C08AE0989E200D48
S11310201124922E11C0EAE02E9E200D1124222EAE
S1131030F32DF0623F2E08C08C3621F4832D806896
S1131040382E02C0883641F4F70193FD859193FF51
S113105081917F018111B3CF982F9F7D9554933057
S113106028F40C5F1F4F9FE399830DC0833631F042
S1131070833771F0833509F059C021C0F8018081AC
S113108089830E5F1F4F88248394912C530113C0CE
S11310902801F2E04F0E511CF801A080B18036FE09
S11310A003C0692D70E002C06FEF7FEFC5010E949D
S11310B09D094C018201F32DFF773F2E16C02801B4
S11310C022E0420E511CF801A080B18036FE03C01C
S11310D0692D70E002C06FEF7FEFC5010E94920995
S11310E04C01F32DF0683F2E820133FC1BC0822D8E
S11310F090E088169906B0F4B60180E290E00E9470
S1131100A8092A94F4CFF50137FC859137FE819123
S11311105F01B60190E00E94A80921102A9421E001
S1131120821A91088114910471F7E8C0843611F091
S1131130893641F5F80137FE07C0608171818281EB
S113114093810C5F1F4F08C060817181072E000CD2
S1131150880B990B0E5F1F4FF32DFF763F2E97FFE1
S113116009C090958095709561957F4F8F4F9F4FE3
S1131170F0683F2E2AE030E0A3010E94E409882EA3
S1131180861845C0853731F4232D2F7EB22E2AE0F0
S113119030E025C0932D997FB92E8F36C1F018F415
S11311A0883579F0B5C0803719F0883721F0B0C0A0
S11311B0E92FE061BE2EB4FE0DC0FB2DF460BF2EFE
S11311C009C034FE0AC0292F2660B22E06C028E0CA
S11311D030E005C020E130E002C020E132E0F80157
S11311E0B7FE07C060817181828193810C5F1F4FBC
S11311F006C06081718180E090E00E5F1F4FA30103
S11312000E94E409882E8618FB2DFF773F2E36FEB8
S11312100DC0232D2E7FA22E891458F434FE0BC04A
S113122032FC09C0832D8E7EA82E05C0B82CA32CB9
S113123003C0B82C01C0B92CA4FE0FC0FE01E80DF8
S1131240F11D8081803321F49A2D997EA92E09C045
S1131250A2FE06C0B394B39404C08A2D867809F024
S1131260B394A3FC11C0A0FE06C0B21488F4280CE9
S1131270922C9B180EC0B21460F4B60180E290E088
S11312800E94A809B394F7CFB21418F42B1802C023
S1131290982C212CA4FE10C0B60180E390E00E949B
S11312A0A809A2FE17C0A1FC03C088E790E002C011
S11312B088E590E0B6010CC08A2D867859F0A1FE2D
S11312C002C08BE201C080E2A7FC8DE2B60190E08F
S11312D00E94A809891438F4B60180E390E00E94C2
S11312E0A8099A94F7CF8A94F301E80DF11D80813F
S11312F0B60190E00E94A8098110F5CF222009F4DC
S113130042CEB60180E290E00E94A8092A94F6CF6A
S1131310F6018681978102C08FEF9FEF2B96E2E161
S11313200C945E0AFC010590615070400110D8F7DE
S1131330809590958E0F9F1F0895FC016150704019
S113134001900110D8F7809590958E0F9F1F0895F6
S11313500F931F93CF93DF93FB01238121FD03C0E0
S11313608FEF9FEF2CC022FF16C046815781248146
S113137035814217530744F4A081B1819D012F5F49
S11313803F4F318320838C93268137812F5F3F4FDA
S11313903783268314C08B01EC01FB010084F185A3
S11313A0E02D0995892BE1F6D80116968D919C9133
S11313B01797019617969C938E931697CE01DF91FB
S11313C0CF911F910F910895FA01AA27283051F166
S11313D0203181F1E8946F936E7F6E5F7F4F8F4F62
S11313E09F4FAF4FB1E03ED0B4E03CD0670F781FC1
S11313F0891F9A1FA11D680F791F8A1F911DA11DA6
S11314006A0F711D811D911DA11D20D009F46894DE
S11314103F912AE0269F11243019305D3193DEF686
S1131420CF010895462F4770405D4193B3E00FD03C
S1131430C9F7F6CF462F4F70405D4A3318F0495D27
S113144031FD4052419302D0A9F7EACFB4E0A6950A
S11314509795879577956795BA95C9F7009761052C
S1131460710508959B01AC010A2E06945795479582
S113147037952795BA95C9F7620F731F841F951F77
S1131480A01D08952F923F924F925F926F927F9288
S11314908F929F92AF92BF92CF92DF92EF92FF9280
S11314A00F931F93CF93DF93CDB7DEB7CA1BDB0B2C
S11314B00FB6F894DEBF0FBECDBF09942A883988D1
S11314C048885F846E847D848C849B84AA84B984D8
S11314D0C884DF80EE80FD800C811B81AA81B981E4
S11314E0CE0FD11D0FB6F894DEBF0FBECDBFED01F8
S10914F00895F894FFCFFB
S11314F6650471028300EE0379020A03830477020A
S1131506750262006004FA03430358036703AA03DF
S1131516C70325633D253032642E253032640A0024
S9030000FC
