:100000000C94EA000C949E030C94C3030C94070117
:100010000C9407010C9407010C9407010C94070140
:100020000C9407010C9407010C9407010C94070130
:100030000C9407010C9407010C9407010C94070120
:100040000C9407010C9407010C9407010C94070110
:100050000C9407010C9407010C9407010C94070100
:100060000C9407010C9407010C9407010C940701F0
:100070000C9407010C9407010C9407010C940701E0
:100080000C9407010C9407010C9407010C940701D0
:100090000C9407010C9407010C9407010C940701C0
:1000A0000C9407010C9407010C9407010C940701B0
:1000B0000C94070105A84CCDB2D44EB93836A9022C
:1000C0000C50B9918688083CA6AAAA2ABE00000056
:1000D000803F6E616E00696E660000407A10F35AD0
:1000E00000A0724E18090010A5D4E80000E8764878
:1000F000170000E40B54020000CA9A3B000000E124
:10010000F505000080969800000040420F000000B6
:10011000A08601000000102700000000E803000096
:1001200000006400000000000A0000000000010060
:10013000000000002C76D888DC674F0823DFC1DF81
:10014000AE59E1B1B796E5E3E453C63AE651997684
:1001500096E8E6C28426EB898C9B62ED407C6FFCBE
:10016000EFBC9C9F40F2BAA56FA5F490055A2AF700
:100170005C936B6CF9676DC11BFCE0E40D47FEF509
:1001800020E6B500D0ED902E030094357705008071
:10019000841E080000204E0A000000C80C333333D0
:1001A000330F986E12831141EF8D2114893BE65570
:1001B00016CFFEE6DB18D1844B381BF77C1D901D53
:1001C000A4BBE424203284725E228100C9F124ECB5
:1001D000A1E53D2711241FBECFEFD8E0DEBFCDBF84
:1001E00011E0A0E0B1E0E0ECFDE102C005900D926D
:1001F000A434B107D9F723E0A4E4B1E001C01D9213
:10020000A331B207E1F70E9495060C94DE0E0C9420
:100210000000ECE7F0E09081907F90839081892B43
:100220008083EAE7F0E080818064808380917A00B7
:1002300086FDFCCF8091780090917900A0E0B0E03D
:10024000880F991FAA1FBB1F880F991FAA1FBB1FCA
:100250000895ECE7F0E080818064808380818F776F
:1002600080838081807F8083EAE7F0E080818768F7
:10027000808308959093200280931F02109225029C
:1002800010920C02109224021092230210922D025E
:1002900010922C0210922202109221021092270238
:1002A0001092260210922B0210922A02109229021A
:1002B00010922802109207031092060310920E0269
:1002C00010920D020895E0911F02F091200201901A
:1002D000F081E02D80E895E20995E0911F02F09110
:1002E00020020280F381E02D0995E0911F02F09138
:1002F00020020480F581E02D0995E0911F02F09124
:1003000020020680F781E02D0995A0911F02B0918F
:1003100020021896ED91FC91199758962D913C91D9
:10032000599744E06FE072E08EE292E0099581E037
:100330008093250208951F93CF93DF9310E022C08E
:10034000C12F012E000CDD0BE0911F02F091200265
:100350000688F789E02D80E00995CC0FDD1FFE01AE
:10036000EC5BFE4F91838083E0911F02F0912002AD
:100370000688F789E02D81E00995C25CDD4F9983FD
:1003800088831F5F1436E4F2E0911F02F09120028F
:10039000028CF38DE02D0995E0911F02F09120026F
:1003A0000488F589E02D0995E0911F02F091200263
:1003B0000284F385E02D09958430B0F3E0911F02AB
:1003C000F09120020288F389E02D099582E0809364
:1003D0002502DF91CF911F910895E0911F02F091C6
:1003E0002002048CF58DE02D64E684E491E009950B
:1003F00090932D0280932C02E0911F02F091200235
:10040000048CF58DE02D64E68EE392E009959093DF
:10041000220280932102E0911F02F0912002068CBB
:10042000F78DE02D80912C0290912D0209959093EB
:10043000270280932602E0911F02F0912002068C91
:10044000F78DE02D809121029091220209959093E1
:100450002B0280932A02E0911F02F091200200A05B
:10046000F1A1E02D44E06FE072E08EE292E00995A8
:100470009093290280932802E0911F02F0912002BC
:1004800002A0F3A1E02D0995909307038093060342
:10049000E0911F02F091200204A0F5A1E02D6091EF
:1004A0002A0270912B02AC018091260290912702C2
:1004B000099590930E0280930D0210920C021092F7
:1004C0002402E0911F02F09120020484F585E02DC2
:1004D00080E0099583E0809325020895CF93DF9310
:1004E000CDB7DEB760970FB6F894DEBF0FBECDBFB5
:1004F000E0911F02F09120020684F785E02D40E58F
:10050000BE016F5F7F4F80910D0290910E020995A1
:10051000E0911F02F09120020088F189E02DCE01C8
:1005200001960995E0911F02F09120020684F7855B
:10053000E02D46E4BE016F5F7F4F809106039091EE
:1005400007030995E0911F02F09120020088F189CC
:10055000E02DCE0101960995E0911F02F091200255
:100560000684F785E02D46E5BE016F5F7F4F8091E1
:100570002602909127020995E0911F02F091200236
:100580000088F189E02DCE0101960995E0911F02C6
:10059000F09120020684F785E02D49E4BE016F5FEB
:1005A0007F4F80912A0290912B020995E0911F02C2
:1005B000F09120020088F189E02DCE010196099585
:1005C00081E08093250260960FB6F894DEBF0FBEDF
:1005D000CDBFDF91CF91089580912502813049F000
:1005E00028F0823049F0833051F00CC00E94630142
:1005F000F3CF0E949B01F0CF0E94ED01EDCF0E944E
:100600006E02EACF81E090E0089517B81AB8089515
:1006100078940895F894089580930A0380930803CA
:100620001092090310920B03089590910A03809190
:100630000803891718F480910803089580910A032C
:10064000089590930F0380930E03709312036093A9
:1006500011031092090310920B034093100330937F
:100660000D0320930C03E9E6F0E080818A6080832B
:100670008DB383608DBB1092080310920A03089516
:10068000CF93DF93882319F0813061F154C08091BA
:100690000B03811104C081E080930B034CC0909147
:1006A000080380911003981709F445C0C09108030E
:1006B000D0E0CC0FDD1FCC0FDD1F80911103909196
:1006C0001203C80FD91FE0910C03F0910D03099597
:1006D000688379838A839B83809108038F5F8093EB
:1006E000080329C080910903811104C081E080932F
:1006F000090321C090910A03809110039817D9F043
:10070000C0910A03D0E0CC0FDD1FCC0FDD1F80911C
:100710000E0390910F03C80FD91FE0910C03F091C5
:100720000D030995688379838A839B8380910A03EB
:100730008F5F80930A03DF91CF9108951F920F92EC
:100740000FB60F9211242F933F934F935F936F93A4
:100750007F938F939F93AF93BF93EF93FF9380E02B
:100760000E944003FF91EF91BF91AF919F918F91B4
:100770007F916F915F914F913F912F910F900FBE9D
:100780000F901F9018951F920F920FB60F92112481
:100790002F933F934F935F936F937F938F939F9389
:1007A000AF93BF93EF93FF9381E00E944003FF91CB
:1007B000EF91BF91AF919F918F917F916F915F91D9
:1007C0004F913F912F910F900FBE0F901F90189552
:1007D000DC0190E040E050E00DC0E92FF0E0EE0FCA
:1007E000FF1FEA0FFB1F208131814217530708F4D6
:1007F000A9019F5F961788F3CA010895BC0180E0A4
:1008000090E00E9466072EEE34E045EB5FE30E9425
:10081000BE060E943707CB0108958F929F92AF9238
:10082000BF92CF92DF92EF92FF920F931F93CF93DD
:10083000DF93DB011496CD90DD90ED90FC9017973F
:10084000EC010C811D812E813F81A601401B510BC3
:100850009A0122F422273327241B350BF22FE32F92
:10086000DB010D911D912D913C91EC0188819981C5
:10087000AA81BB81A801481B590BCA01992324F402
:1008800088279927841B950B6F2F7E2F8617970734
:100890000CF4BC01C01AD10A072E000C880B990B6E
:1008A0000E94680720ED3FE049EC50E40E943308C5
:1008B0004B015C01B601DD0C880B990B0E946807A7
:1008C0009B01AC01C501B4010E94BE0620E030E0EE
:1008D0004AE754E40E9433080E9437079B017723BC
:1008E00024F422273327261B370BC901DF91CF9130
:1008F0001F910F91FF90EF90DF90CF90BF90AF903E
:100900009F908F900895BC0180E090E00E94660760
:1009100020E030E04AE754E40E94BE060E94B90697
:1009200020E030E04AE754E40E9433080E94300798
:100930009B01772324F422273327261B370BC90179
:100940000895CF92DF92EF92FF920F931F93CF9370
:10095000DF938B01EA01BC0180E090E00E94660712
:1009600020E030E04AE754E40E94BE066B017C01BF
:10097000B80180E090E00E94660720E030E04AE79E
:1009800054E40E94BE069B01AC01C701B6010E945F
:1009900033086B017C01BE0180E090E00E94660795
:1009A00020E030E04AE754E40E94BE069B01AC011F
:1009B000C701B6010E94330820E030E04AE754E462
:1009C0000E9433080E943707CB01DF91CF911F911E
:1009D0000F91FF90EF90DF90CF900895E1E8F0E065
:1009E0008081846080830895109285001092840035
:1009F0000895809184009091850008950E94F904E3
:100A0000BC0180E090E00895FF920F931F93CF9375
:100A1000DF938C01D62FF72EC42F493409F465C01B
:100A200020F4463409F476C028C1403509F4CCC01E
:100A3000463509F022C1BC0180E090E00E946607C3
:100A400020E030E04AE754E40E94BE06462F572FCC
:100A5000E82FF92F980136952795369527953695E5
:100A60002795A5ECB0E20E94EE0C929582958F70CE
:100A700089279F70892768EE73E0869F9001879F82
:100A8000300D969F300D112402171307B9F4FF9310
:100A9000EF935F934F931F92CF9386E291E09F93E2
:100AA0008F93FF92DF930E945E0E8DB79EB70A96DA
:100AB0000FB6F8949EBF0FBE8DBFDFC0FF93EF93BC
:100AC0005F934F931F92CF938FE291E09F938F9309
:100AD000FF92DF930E945E0E8DB79EB70A960FB607
:100AE000F8949EBF0FBE8DBFC8C01F938F931F92F7
:100AF0004F9388E391E09F938F937F936F930E942E
:100B00005E0E8DB79EB708960FB6F8949EBF0FBEC7
:100B10008DBFB3C0BC0180E090E00E94660720E07A
:100B200030E04AE754E40E94BE06462F572FE82FD4
:100B3000F92F98013695279536952795369527955F
:100B4000A5ECB0E20E94EE0C929582958F708927F9
:100B50009F70892768EE73E0869F9001879F300D14
:100B6000969F300D112402171307B9F4FF93EF93EA
:100B70005F934F931F92CF9386E291E09F938F9361
:100B8000FF92DF930E945E0E8DB79EB70A960FB656
:100B9000F8949EBF0FBE8DBF70C0FF93EF935F931D
:100BA0004F931F92CF938FE291E09F938F93FF9289
:100BB000DF930E945E0E8DB79EB70A960FB6F8942B
:100BC0009EBF0FBE8DBF59C0BC0180E090E00E9467
:100BD000660720E030E04AE754E40E94BE06462F54
:100BE000572FE82FF92F9801369527953695279599
:100BF00036952795A5ECB0E20E94EE0C9295829571
:100C00008F7089279F70892768EE73E0869F900117
:100C1000879F300D969F300D112402171307B9F4EA
:100C2000FF93EF935F934F931F92CF9386E291E0F0
:100C30009F938F93FF92DF930E945E0E8DB79EB7B6
:100C40000A960FB6F8949EBF0FBE8DBF16C0FF93D5
:100C5000EF935F934F931F92CF938FE291E09F9317
:100C60008F93FF92DF930E945E0E8DB79EB70A9618
:100C70000FB6F8949EBF0FBE8DBFDF91CF911F912D
:100C80000F91FF900895A0E0B0E0880F991FAA1F70
:100C9000BB1F880F991FAA1FBB1F9C01AD01220F0C
:100CA000331F441F551F220F331F441F551F60E081
:100CB00074E284EF90E00E94CC0CC9010197089582
:100CC0000E9443069C01E1ECF0E0908198619083E2
:100CD000E2ECF0E090819660908390819F7E90831B
:100CE00090819F7D90833093C5002093C400089528
:100CF0009091C00095FFFCCF8093C60008950F939C
:100D00001F93CF93DF938C01C0E0D0E003C00E941B
:100D100078062196F801EC0FFD1F80818111F7CF35
:100D2000DF91CF911F910F910895CF93DF93CDB7AE
:100D3000DEB7A6970FB6F894DEBF0FBECDBF86E232
:100D4000E0E0F1E0DE01119601900D928A95E1F765
:100D5000CE0101960E943A010E94EC0280E090E0F0
:100D6000A6960FB6F894DEBF0FBECDBFDF91CF9130
:100D700008950E94BC07E3950C94F6070E94D206E2
:100D80000C94E5070E94B30758F00E94AC0740F0AE
:100D900029F45F3F29F00C94A30751110C942D08FE
:100DA0000C94A9070E940A0868F39923B1F355230C
:100DB00091F3951B550BBB27AA276217730784076E
:100DC00038F09F5F5F4F220F331F441FAA1FA9F304
:100DD00035D00E2E3AF0E0E832D091505040E695F2
:100DE000001CCAF72BD0FE2F29D0660F771F881F53
:100DF000BB1F261737074807AB07B0E809F0BB0B46
:100E0000802DBF01FF2793585F4F3AF09E3F510559
:100E100078F00C94A3070C942D085F3FE4F3983E00
:100E2000D4F3869577956795B795F7959F5FC9F742
:100E3000880F911D9695879597F90895E1E0660FC3
:100E4000771F881FBB1F621773078407BA0720F03C
:100E5000621B730B840BBA0BEE1F88F7E0950895A5
:100E60000E9437076894B1110C942D0808950E94D0
:100E7000120888F09F5798F0B92F9927B751B0F012
:100E8000E1F0660F771F881F991F1AF0BA95C9F70E
:100E900014C0B13091F00E942C08B1E008950C9478
:100EA0002C08672F782F8827B85F39F0B93FCCF32B
:100EB000869577956795B395D9F73EF4909580958B
:100EC000709561957F4F8F4F9F4F0895E89409C0AB
:100ED00097FB3EF490958095709561957F4F8F4F6D
:100EE0009F4F9923A9F0F92F96E9BB279395F69583
:100EF000879577956795B795F111F8CFFAF4BB0F01
:100F000011F460FF1BC06F5F7F4F8F4F9F4F16C064
:100F1000882311F096E911C0772321F09EE8872FEE
:100F2000762F05C0662371F096E8862F70E060E0AA
:100F30002AF09A95660F771F881FDAF7880F969523
:100F4000879597F9089597F99F6780E870E060E0CA
:100F500008959FEF80EC089500240A941616170652
:100F600018060906089500240A941216130614069A
:100F7000050608950C94A9070E941208D8F3E89476
:100F8000E0E0BB279F57F0F02AED3FE049EC06C0B8
:100F9000EE0FBB0F661F771F881F28F0B23A62075B
:100FA0007307840728F0B25A620B730B840BE39526
:100FB0009A9572F7803830F49A95BB0F661F771FA9
:100FC000881FD2F790480C940809092E0394000C4E
:100FD00011F4882352F0BB0F40F4BF2B11F460FFD3
:100FE00004C06F5F7F4F8F4F9F4F0895EF93E0FFD7
:100FF00007C0A2EA2AED3FE049EC5FEB0E94B1088E
:101000000E94E5070F90039401FC9058E4EBF0E098
:101010000C943B0957FD9058440F551F59F05F3F02
:1010200071F04795880F97FB991F61F09F3F79F00A
:1010300087950895121613061406551FF2CF46958C
:10104000F1DF08C0161617061806991FF1CF86950E
:101050007105610508940895E894BB2766277727F2
:10106000CB0197F908950E9446080C94E5070E9469
:10107000AC0738F00E94B30720F0952311F00C94D0
:10108000A3070C94A90711240C942D080E940A08A8
:1010900070F3959FC1F3950F50E0551F629FF001CB
:1010A000729FBB27F00DB11D639FAA27F00DB11DE4
:1010B000AA1F649F6627B00DA11D661F829F22276D
:1010C000B00DA11D621F739FB00DA11D621F839FF4
:1010D000A00D611D221F749F3327A00D611D231FCA
:1010E000849F600D211D822F762F6A2F11249F5718
:1010F00050409AF0F1F088234AF0EE0FFF1FBB1F1B
:10110000661F771F881F91505040A9F79E3F5105D9
:1011100080F00C94A3070C942D085F3FE4F3983EF5
:10112000D4F3869577956795B795F795E7959F5F83
:10113000C1F7FE2B880F911D9695879597F9089515
:101140000E94AC0738F00E94B30720F039F49F3FAB
:1011500019F426F40C94A9070EF4E095E7FB0C941F
:10116000A307E92F0E940A0858F3BA17620773070A
:101170008407950720F079F4A6F50C942C080EF45A
:10118000E0950B2EBA2FA02D0B01B90190010C0197
:10119000CA01A0011124FF27591B99F0593F50F4AF
:1011A000503E68F11A16F040A22F232F342F442707
:1011B000585FF3CF469537952795A795F0405395FF
:1011C000C9F77EF41F16BA0B620B730B840BBAF0CF
:1011D0009150A1F0FF0FBB1F661F771F881FC2F73A
:1011E0000EC0BA0F621F731F841F48F4879577954E
:1011F0006795B795F7959E3F08F0B0CF9395880F08
:1012000008F09927EE0F9795879508959F3F31F045
:10121000915020F4879577956795B795880F911D24
:101220009695879597F90895DF93CF931F930F9322
:10123000FF92EF92DF927B018C01689406C0DA2E58
:10124000EF010E944608FE01E894A5912591359191
:1012500045915591A6F3EF010E94B108FE01970157
:10126000A801DA9469F7DF90EF90FF900F911F913A
:10127000CF91DF9108959F938F937F936F93FF9307
:10128000EF939B01AC010E943308EF91FF910E9404
:1012900014092F913F914F915F910C943308A0E175
:1012A000B0E0E5E5F9E00C94FD0C7C011B016A015E
:1012B000FC0117821682838181FF44C39E012F5F48
:1012C0003F4F3901F7019381F10193FD859193FF20
:1012D00081911F01882309F431C3853239F493FDCC
:1012E000859193FF81911F01853239F4B70190E018
:1012F0000E94220E56016501E5CF10E0512C912C81
:10130000FFE1F915D8F08B3279F038F4803279F0BA
:101310008332A1F4F92DF0612EC08D3261F080335B
:1013200069F4292D21602DC0392D3260932E892D2D
:101330008460982E2AC0E92DE86015C097FC2DC066
:1013400020ED280F2A3088F496FE06C03AE0139F5D
:10135000200D1124122F19C08AE0589E200D11244F
:10136000522EE92DE0629E2E10C08E3231F496FC92
:10137000E5C2F92DF0649F2E08C08C3621F4292D8A
:101380002068922E02C0883641F4F10193FD8591C8
:1013900093FF81911F018111B3CF9BEB980F933085
:1013A00020F4992D9061805E07C09BE9980F9330DF
:1013B00008F066C1992D9F7E96FF16E09F73992EC7
:1013C000853619F49064992E08C0863621F4392F99
:1013D0003068932E02C01111115097FE07C01C33C4
:1013E00050F444244394410E27E00BC0183038F0E9
:1013F00027E017E005C027E09CE3492E02C0212F1B
:10140000412C560184E0A80EB11CF6016081718167
:1014100082819381042DA3010E94340D6C01F98116
:10142000FC87F0FF02C0F3FF06C091FC06C092FEED
:1014300006C000E205C00DE203C00BE201C000E0FF
:101440008C858C7019F001115AC29BC297FE10C096
:101450004C0CFC85F4FF04C08A81813309F44A9462
:10146000141474F528E0241578F588E0482E2CC073
:1014700096FC2AC0812F90E08C159D059CF03CEFD6
:10148000C3163FEFD30674F0892D8068982E0AC0EA
:10149000E2E0F0E0EC0FFD1FE10FF11D80818033F1
:1014A00019F411501111F4CF97FE0EC04424439447
:1014B000410E812F90E0C816D9062CF41C1904C0E7
:1014C0004424439401C010E097FE06C01C141D0480
:1014D00034F4C601019605C085E090E002C081E0C9
:1014E00090E001110196112331F0212F30E02F5FA0
:1014F0003F4F820F931F252D30E08217930714F47E
:10150000581A01C0512C892D897049F4552039F0A1
:10151000B70180E290E00E94220E5A94F7CF002398
:1015200029F0B701802F90E00E94220E93FC09C0A1
:10153000552039F0B70180E390E00E94220E5A94C2
:10154000F7CF97FE4CC04601D7FE02C0812C912CEC
:10155000C60188199909F301E80FF91FFE87ED8785
:10156000960124193109388B2F87012F10E011952E
:10157000019511093FEF8316930629F4B7018EE216
:1015800090E00E94220EC814D9044CF08F859889EF
:101590008815990524F4ED85FE85818101C080E3DD
:1015A000F1E08F1A91082D853E852F5F3F4F3E87D2
:1015B0002D87801691062CF0B70190E00E94220E34
:1015C000D9CFC814D90441F49A81963320F49533C5
:1015D00019F43C8534FF81E3B70190E04EC08A8165
:1015E000813319F09C859F7E9C87B70190E00E9413
:1015F000220E111105C094FC18C085E690E017C0BA
:10160000B7018EE290E00E94220E1E5F82E001E0B0
:10161000080FF301E80FF11D8081B70190E00E94EF
:10162000220E802F0113F3CFE6CF85E490E0B701BF
:101630000E94220ED7FC06C0C114D10441F4EC85EF
:10164000E4FF05C0D194C194D1088DE201C08BE2C2
:10165000B70190E00E94220E80E32AE0C216D10476
:101660002CF08F5FFAE0CF1AD108F7CFB70190E0E6
:101670000E94220EB701C601C0960E94220E54C1DC
:10168000833631F0833779F0833509F056C020C0B6
:10169000560132E0A30EB11CF6018081898301E07E
:1016A00010E0630112C05601F2E0AF0EB11CF6016A
:1016B000C080D18096FE03C0612F70E002C06FEF42
:1016C0007FEFC6010E94170E8C01F92DFF7714C021
:1016D000560122E0A20EB11CF601C080D18096FE18
:1016E00003C0612F70E002C06FEF7FEFC6010E9460
:1016F0000C0E8C01F92DF0689F2EF3FD1AC0852D7C
:1017000090E008171907A8F4B70180E290E00E9462
:10171000220E5A94F4CFF60197FC859197FE8191A1
:101720006F01B70190E00E94220E51105A940150AF
:1017300011090115110579F7F7C0843611F08936C2
:1017400061F5560197FE09C024E0A20EB11CF60116
:1017500060817181828193810AC0F2E0AF0EB11C79
:10176000F60160817181072E000C880B990BF92D11
:10177000FF769F2E97FF09C0909580957095619593
:101780007F4F8F4F9F4FF0689F2E2AE030E0A301DC
:101790000E94800EC82EC6183FC0092D853721F43F
:1017A0000F7E2AE030E01DC0097F8F3691F018F4DB
:1017B000883559F0C3C0803719F0883711F0BEC0A2
:1017C000006104FF09C0046007C094FE08C0066001
:1017D00006C028E030E005C020E130E002C020E192
:1017E00032E0560107FF09C084E0A80EB11CF601E3
:1017F000608171818281938108C0F2E0AF0EB11CDB
:10180000F6016081718180E090E0A3010E94800E6A
:10181000C82EC6180F77902E96FE0BC0092D0E7F8E
:10182000C11650F494FE0AC092FC08C0092D0E7E29
:1018300005C0DC2C092D03C0DC2C01C0D12E04FF17
:101840000DC0FE01EC0DF11D8081803311F4097E85
:1018500009C002FF06C0D394D39404C0802F8678B9
:1018600009F0D39403FD11C000FF06C01C2DD51450
:1018700080F4150D1D190DC0D51458F4B70180E280
:1018800090E00E94220ED394F7CFD51410F45D1887
:1018900001C0512C04FF10C0B70180E390E00E940A
:1018A000220E02FF17C001FD03C088E790E002C0CE
:1018B00088E590E0B7010CC0802F867859F001FFD1
:1018C00002C08BE201C080E207FD8DE2B70190E02B
:1018D0000E94220EC11638F4B70180E390E00E9406
:1018E000220E1150F7CFCA94F301EC0DF11D808147
:1018F000B70190E00E94220EC110F5CF15C0F4E0B0
:10190000F51560F584E0581A93FE1FC0011127C039
:101910002C8523FF2AC002ED10E0392D3071932E63
:10192000F8018491811124C0552009F4E4CCB70159
:1019300080E290E00E94220E5A94F6CFF701868151
:10194000978126C08FEF9FEF23C0B70180E290E020
:101950000E94220E5A945110F8CFD8CF512CB701C3
:10196000802F90E00E94220ED3CF06ED10E0D5CF5D
:1019700091108052B70190E00E94220E0F5F1F4F1E
:10198000CFCF23E0251510F483E0BDCF512CC0CF7D
:101990006096E2E10C94190DA1E21A2EAA1BBB1B62
:1019A000FD010DC0AA1FBB1FEE1FFF1FA217B3072B
:1019B000E407F50720F0A21BB30BE40BF50B661F41
:1019C000771F881F991F1A9469F760957095809505
:1019D00090959B01AC01BD01CF010895A29FB0017C
:1019E000B39FC001A39F700D811D1124911DB29F53
:1019F000700D811D1124911D08952F923F924F92D9
:101A00005F926F927F928F929F92AF92BF92CF928E
:101A1000DF92EF92FF920F931F93CF93DF93CDB797
:101A2000DEB7CA1BDB0B0FB6F894DEBF0FBECDBF0F
:101A300009942A88398848885F846E847D848C84E0
:101A40009B84AA84B984C884DF80EE80FD800C81E9
:101A50001B81AA81B981CE0FD11D0FB6F894DEBFCC
:101A60000FBECDBFED010895283008F027E03327E1
:101A7000DA01990F311D87FD9160009661057105AE
:101A800039F432602E5F3D9330E32A95E1F70895F3
:101A90009F3F30F080387105610509F03C5F3C5F85
:101AA0003D93913008F08068911DDF93CF931F9391
:101AB0000F93FF92EF92192F987F9695E92F9695A5
:101AC0009695E90FFF27EC5CFE4F99273327EE240C
:101AD000FF24A701E70105900894079428F4360F26
:101AE000E71EF81E491F511D660F771F881F991F9B
:101AF0000694A1F70590079428F4E70EF81E491FF5
:101B0000561FC11D770F881F991F661F0694A1F7E6
:101B10000590079428F4F80E491F561FC71FD11DC2
:101B2000880F991F661F771F0694A1F705900794E9
:101B300020F4490F561FC71FD81F990F661F771F24
:101B4000881F0694A9F784911095177041F0D695D7
:101B5000C79557954795F794E7941A95C1F7EAED1D
:101B6000F0E06894159015913591659195910590E7
:101B70007FE27395E118F10A430B560BC90BD009AC
:101B8000C0F7E10CF11E431F561FC91FD01D7EF484
:101B9000703311F48A95E6CFE894015030F0080FC5
:101BA0000AF40027021708F4202F2395022F7A3316
:101BB00028F079E37D932A95E9F710C07D932A9563
:101BC00089F6069497956795379517951794E118B8
:101BD000F10A430B560BC90BD00998F023957E915F
:101BE00073957A3308F070E37C932013B8F77E91F5
:101BF00070617D9330F0839571E37D9370E32A9556
:101C0000E1F71124EF90FF900F911F91CF91DF9199
:101C1000992787FD90950895FC01059061507040CB
:101C20000110D8F7809590958E0F9F1F0895FC01A5
:101C30006150704001900110D8F7809590958E0FFB
:101C40009F1F08950F931F93CF93DF93FB01238171
:101C500021FD03C08FEF9FEF2CC022FF16C04681ED
:101C60005781248135814217530744F4A081B18103
:101C70009D012F5F3F4F318320838C9326813781D5
:101C80002F5F3F4F3783268314C08B01EC01FB018C
:101C90000084F185E02D0995892BE1F6D80116968F
:101CA0008D919C911797019617969C938E931697FA
:101CB000CE01DF91CF911F910F910895AEE0B0E07A
:101CC000E4E6FEE00C940B0D0D891E8986E08C8302
:101CD0001A8309838FEF9FE79E838D83AE01475E52
:101CE0005F4F6F89788DCE0101960E944F09EF8179
:101CF000F885E00FF11F10822E96E4E00C94270D7A
:101D0000FA01AA27283051F1203181F1E8946F932C
:101D10006E7F6E5F7F4F8F4F9F4FAF4FB1E03ED0D2
:101D2000B4E03CD0670F781F891F9A1FA11D680F70
:101D3000791F8A1F911DA11D6A0F711D811D911DA3
:101D4000A11D20D009F468943F912AE0269F112418
:101D50003019305D3193DEF6CF010895462F47707C
:101D6000405D4193B3E00FD0C9F7F6CF462F4F70D7
:101D7000405D4A3318F0495D31FD4052419302D035
:101D8000A9F7EACFB4E0A6959795879577956795DB
:101D9000BA95C9F700976105710508959B01AC01DB
:101DA0000A2E06945795479537952795BA95C9F702
:101DB000620F731F841F951FA01D0895F894FFCF15
:101DC000600605032901EE04210315030C03040535
:101DD0007F060A0308030901FE04F404E803FE0376
:101DE0000D048304A10425633D253034670A0025D2
:101DF000633D253035670A0025633D253034750A7B
:041E0000000D0A00C7
:00000001FF
